:020000022000DC
:106000000000042061620200B9620200BB6202006B
:10601000BD620200BF620200C16202000000000017
:10602000000000000000000000000000C362020049
:10603000C562020000000000C7620200C9620200DF
:1060400085CB0200CF6202000DD90200D3620200AC
:10605000D5620200D762020025D60200DB62020090
:10606000DD620200DF620200E1620200E362020020
:10607000E5620200E7620200E9620200EB620200F0
:10608000ED62020041870200F1620200F362020049
:1060900081870200F7620200A9750300FB6202001B
:1060A000FD620200FF62020001630200036302005E
:1060B0000563020007630200CB620200CB620200AC
:1060C000096302000B6302000D6302000F6302000C
:1060D00011630200136302001563020017630200DC
:1060E000196302001B6302001D630200CB62020001
:1060F000CB62020021630200CB6202001F63020038
:10610000364937480A1A02D0072291438D4635494D
:1061100035480A1A06D00722914381F309880222E2
:1061200082F3148831483249324A00F045F8324847
:106130003249334A00F040F832483349334A00F0DC
:106140003BF833483349344A00F036F83348344991
:10615000344A00F031F834483449354A00F02CF81C
:1061600034483549354A00F027F83548354900228A
:1061700000F02DF834483549002200F028F8344862
:106180003449091A082903DB002202600430016047
:10619000314A90471F482049884205D002680430A0
:1061A00003B4904703BCF7E700208646EC46002086
:1061B00000212A4A9047FEE7884207D0521A05D0AC
:1061C000037801300B700131013AF9D170478842F0
:1061D00002D002700130FAE770470000000004208E
:1061E00000E0032000000420000004200CA10300B4
:1061F000882200204423002024630200246302003C
:10620000F87F03000CA103008822002088220020D0
:10621000788103007881030078810300788103008E
:10622000788103007881030078810300788103007E
:106230000CA10300C8A10300442300204423002034
:106240004423002094320020943200209432002015
:10625000943200209452002085620200D102030093
:106260000F484FF00701884385460E4880470E4887
:10627000016841F470010160BFF34F8FBFF36F8F6E
:10628000FFF73EBF09480A490A4A884207D0521A16
:1062900005D0037801300B700131013AF9D1704714
:1062A00000000420F1BC020088ED00E02081030022
:1062B0003022002088220020FEE7FEE7FEE7FEE70E
:1062C000FEE7FEE7FEE7FEE7FEE7FEE7FEE7FEE7A6
:1062D000FEE7FEE7FEE7FEE7FEE7FEE7FEE7FEE796
:1062E000FEE7FEE7FEE7FEE7FEE7FEE7FEE7FEE786
:1062F000FEE7FEE7FEE7FEE7FEE7FEE7FEE7FEE776
:10630000FEE7FEE7FEE7FEE7FEE7FEE7FEE7FEE765
:10631000FEE7FEE7FEE7FEE7FEE7FEE7FEE7FEE755
:04632000FEE700BFD5
:1063240000B585B00190019B002B0AD0074B43F0C8
:1063340001030393019B9B010293039B02989847DB
:1063440000E000BF05B05DF804FB00BF90810300CE
:1063540000B583B00190019B002B0AD04FF47A70F2
:10636400FFF7DEFF019B013B0193019B002BF5D15D
:1063740000E000BF03B05DF804FB08B50AF022F9A1
:1063840000BF08BD00B589B0039002910192019B42
:10639400002B33D00023079303230693029A079B11
:1063A4001344019A194600200AF0BEF80590079A92
:1063B400059B13440793019A059BD31A0193059BEC
:1063C400002B13D10F4B1B7883F00103DBB2002B9E
:1063D40013D10120FFF7BCFF069B013B0693069BEC
:1063E400002B03D1074B00221A7007E0054B012252
:1063F4001A70019B002BD1D100E000BF00BF09B08F
:106404005DF804FB4423002000B585B0039002919D
:10641400054B00934023054A0299039800F012F8B3
:1064240000BF05B05DF804FB896302004823002027
:1064340082B0019000BF02B0704782B0019000BFEB
:1064440002B0704700B5A1B0059004910392029385
:10645400049805F024FA039B1593029B16930023DA
:10646400179300238DF8603000231993229B1A930D
:1064740000231F930FA91F9B0822049805F0CAFA52
:1064840008231F93119B1293BDF84030ADF84C3094
:10649400BDF84230ADF84E3000238DF851309DF8F0
:1064A4003C3003F00303DBB2012B26D10F9BC3F373
:1064B40095231D939DF83C30C3F3C203DBB28DF8E2
:1064C4005030BDF83C30C3F38313DBB21C931C9BE8
:1064D4009A0009A91F9B049805F09CFA1C9B9B0039
:1064E4001F9A13441F9312AA09A915AB00931346CC
:1064F4001C9A1D9801F03CF82FE09DF83C3003F005
:106504000303DBB2022B28D1BDF83E30C3F3891359
:106514009BB21E939DF83C30C3F3C203DBB28DF8EB
:1065240050301E9B082B28BF08231B9307A91F9BD1
:106534001B9A049805F06EFA1F9A1B9B13441F9331
:106544001E9A1B9BD31A1E9315AB12AA07A81B995C
:1065540001F0B0F81E9B002BE3D1049805F0AEF9CE
:1065640000BF21B05DF804FB00B583B00190019B2E
:106574001B781A460C4B9B5C002B05D0019B043303
:10658400184608F07DFC0BE0019B1B781A46064B6D
:106594009B5C002B04D1019B0C33184607F010FEC2
:1065A40000BF03B05DF804FB1C2B002000B587B0CE
:1065B4000390029113468DF8073000230593039B43
:1065C4001B781A46114B9B5C002B09D0039B0433A8
:1065D4009DF807200299184608F080FC05900FE00A
:1065E400039B1B781A46094B9B5C002B08D1039B29
:1065F4000C339DF807200299184607F057FE0590C2
:10660400059B184607B05DF804FB00BF1C2B002057
:1066140082B001900091034B01221A7000BF02B0B6
:10662400704700BFC823002030B58DB003468DF8F5
:1066340007301A4B02AC1D460FCD0FC495E80F006E
:1066440084E80F00062302934FF0FF3303934FF0C7
:10665400FF3304934FF0FF3305934FF0EB7308932C
:106664009DF80730002B01D00D4A00E0002202AB58
:1066740019460C4806F0A2F80B900B9B0A930A9B50
:10668400002B04D0084A43210A9801F0ADFA074AC6
:106694009DF80730137000BF0DB030BD08820300B1
:1066A400156602008822002098810300C923002077
:1066B40000B583B001238DF807309DF807301846E4
:1066C400FFF7B2FF00BF03B05DF804FB00B589B06B
:1066D400039002910192019B8DF81F30124B00220E
:1066E4001A709DF81F301A4602991048FFF75EFF92
:1066F4000690069B0593059B002B04D00C4A53215E
:10670400059801F071FA00BF0A4B1B78002B07D0E3
:10671400054B1B78DBB283F00103DBB2002BF3D112
:1067240000BF09B05DF804FBC823002088220020C4
:1067340098810300C923002000B585B0039002911D
:10674400054B00934023054A02990398FFF77AFE0C
:1067540000BF05B05DF804FBD16602008823002069
:1067640082B0019000BF02B07047000000B583B052
:1067740001900548FFF7F8FE0020FFF755FF00BF22
:1067840003B05DF804FB00BF8822002082B00190B2
:10679400019B01225A7200BF02B0704700B583B05A
:1067A4004FF0FF330193FFF7E8FD0421114800F097
:1067B400FFFD0190019B002B03DA0F49412009F0F2
:1067C4005BF90C48FFF7E2FFFFF772FF04210B4867
:1067D40000F0EEFD0190019B002B03DA06494820EE
:1067E40009F04AF90548FFF7D1FF00BF03B05DF88F
:1067F40004FB00BF9C22002034820300A822002056
:1068040000B583B001900091019B1B681B6800993F
:106814000198984700BF03B05DF804FB00B583B04E
:106824000190019B1B685B680198984700BF03B007
:106834005DF804FB00B583B00190019B1B689B6865
:106844000198984700BF03B05DF804FB82B0019043
:106854000B468DF80330019B9DF803201A7200BF8C
:1068640002B0704782B00190019B1B7A184602B0B7
:10687400704782B00190019B01225A7200BF02B09E
:10688400704782B00190019B5B7A184602B0704752
:1068940000B587B0019000911D4BFF229A601C4BFC
:1068A40000221A601A4B00225A60194B0022C3F8C6
:1068B4001824174B0022C3F81424154B002283F824
:1068C4002024144804F050FF0490049B002B01D0B2
:1068D400049B18E0104A114BD31ADB0803930023DE
:1068E40005930BE0059B9B000D4A13440293059B03
:1068F4009AB2029B1A80059B01330593059A039B68
:106904009A42EFD30023184607B05DF804FB00BF9A
:106914009C240020E0800300E080030058800300F2
:1069240030220020024A034BD31ADB081846704772
:10693400E08003005880030000B587B001900B4647
:106944008DF803309DF80330002B1FD0FFF7EAFFCA
:1069540004900023059313E0059B9B000E4A134407
:106964000393039B5B881A46019B1B689A4204D1DC
:10697400019B059A1A60002309E0059B01330593E6
:10698400059A049B9A42E7D3052300E000231846A6
:1069940007B05DF804FB00BF3022002000B585B0CD
:1069A40001900B468DF803309DF8032001AB11468E
:1069B4001846FFF7C1FF0346002B07D1019BDB00FC
:1069C400054A13440393039B1B6800E00023184605
:1069D40005B05DF804FB00BF5880030084B001904B
:1069E4000B468DF80330019BDB00174A13440293D6
:1069F4009DF80330013B032B1CD801A252F823F06D
:106A0400156A02001D6A0200256A02002F6A02004C
:106A140002238DF80F3011E004238DF80F300DE0C0
:106A2400029B1B798DF80F3008E0029B5B798DF88F
:106A34000F3003E000238DF80F3000BF9DF80F30B6
:106A4400184604B0704700BF5880030000B585B0F5
:106A54000190009100238DF80F30019B1B7803F007
:106A64000303DBB2002B06D0019B1B7803F0040365
:106A7400DBB2002B44D0019B1B7803F00403DBB290
:106A8400002B28D0019B1B78C3F30103DBB2012B3D
:106A940002D0022B0CD017E0009B1B68019A1288CD
:106AA400C2F38312D2B213449A1C009B1A6024E0EE
:106AB400009B1B68019A5288C2F3891292B2134454
:106AC4009A1C009B1A6018E010494FF4A47008F057
:106AD400D3FF00BF11E0009B1A68019B5B88C3F3DE
:106AE40089139BB21946019B1B88C3F389139BB27C
:106AF4000B4413445A1C009B1A6001238DF80F3079
:106B04009DF80F30184605B05DF804FBC082030001
:106B140000B58BB00023ADF826303E4803F008FDE5
:106B24003D4803F005FD3D4B5B6804933B4B9B687C
:106B34000693049A069B134002339B00374A13447E
:106B44000433089304AB19460898FFF77FFF034604
:106B5400002B09D0049A069B134002339B002F4A52
:106B6400134404330893EDE700BF0023079311E0B7
:106B7400079B9B0001AA1A44049B591C0491069983
:106B84000B40264902339B000B445B681360079B50
:106B940001330793079B012BEAD99DF80430C3F313
:106BA4000103DBB2012B10D0022B1CD1BDF80A303B
:106BB400ADF82630BDF80630C3F389139BB2033316
:106BC4009A08049B1344049313E0BDF80A30ADF80B
:106BD4002630BDF80430C3F38313DBB21A46049B9A
:106BE4001344049305E00E494FF4C27008F044FFC7
:106BF40000BF094803F0A8FC0590059B002B02D0B8
:106C0400049B064A5360BDF8263018460BB05DF865
:106C140004FB00BFB4280020B02800209C240020DE
:106C2400C082030000B585B00021074803F0D9FBFA
:106C34000390039B0293029B83F310030193019B34
:106C4400184605B05DF804FBB828002000B589B0EB
:106C54000390029101920093039B1B0C0793FFF78F
:106C6400E1FF0690FFF75EFE0246079B9A4204D8B6
:106C7400224940F2A91008F0FFFE009B5A1C0A9B0F
:106C84001340069A1104079A0A431D4902339B00D4
:106C94000B445A60009A0A9B134002339B00184A23
:106CA400134404330593039BDBB203F00703D9B207
:106CB400059A137861F3C5031370019BDBB203F0EB
:106CC4000F03D9B2059A138861F389131380029BC9
:106CD400C3F31501059A136861F39F231360059AA2
:106CE4001378012161F301031370059A13786FF38C
:106CF4008203137000BF09B05DF804FBC082030077
:106D04009C24002000B58DB00390029113468DF8A9
:106D14000730039B02330A9301238DF827300023A5
:106D24008DF81B300DF11B03184601F057FE414B43
:106D34001A68029B1A603F4B9A683E4B59683D4B58
:106D44001B68CB1A134401330B9314E001213A4816
:106D540003F0BEFBFFF7DCFE08900899364803F009
:106D6400B7FB344B9A68334B5968324B1B68CB1AC8
:106D7400134401330B930A9A0B9B9A42E6D89DF86D
:106D84002730002B4AD0002305939DF80730002BB1
:106D940018D09DF81430012262F301038DF81430E9
:106DA4009DF8143043F004038DF81430039BDBB2D8
:106DB40003F00F03DAB2BDF8143062F38913ADF8AF
:106DC400143017E09DF81430022262F301038DF8A9
:106DD40014309DF8143043F004038DF81430039BF1
:106DE4009BB2C3F309039AB2BDF8163062F38F1352
:106DF400ADF816300F4B1A680E4B9B6813400233E4
:106E04009B000C4A134404330793059A079B1A60AA
:106E1400084B1A680A9B1344064A13609DF81B30FA
:106E2400184601F0F1FD9DF8273018460DB05DF8C5
:106E340004FB00BF9C240020B828002000B58BB0C0
:106E440005900491039202931F4B9B68079306AB32
:106E5400012219460298FFF755FF0346002B24D060
:106E6400069B023309930023089311E0099B5A1CE3
:106E74000992079A1340089A920003990A441268E7
:106E8400114902339B000B445A60089B0133089359
:106E9400089A029B9A42E9D3069A079B00931346E9
:106EA400029A04990598FFF7D1FE074B93F8203412
:106EB400002B05D000BF00F07BF80346002BFAD16D
:106EC40000BF0BB05DF804FB9C24002000B583B028
:106ED400019000910023002200990198FFF7AEFF72
:106EE40000BF03B05DF804FB00B587B003900291C6
:106EF4000192019B059305AA012302990398FFF7C8
:106F04009DFF00BF07B05DF804FB00B587B0039098
:106F1400029101920093019B0493009B059304AAA0
:106F2400022302990398FFF789FF00BF07B05DF8B9
:106F340004FB00B589B00390029101920093019B78
:106F44000593009B06930A9B079305AA03230299C2
:106F54000398FFF773FF00BF09B05DF804FB00B5A9
:106F64008BB00390029101920093019B0593009BC7
:106F740006930C9B07930D9B08930E9B099305AAFC
:106F8400052302990398FFF759FF00BF0BB05DF882
:106F940004FB0000054B5A68044B1B689A420CBF63
:106FA40001230023DBB21846704700BF9C24002055
:106FB40000B599B0FFF7EEFF0346002B01D0002384
:106FC400B8E19A4B0022C3F81824BFF34F8F974BB4
:106FD4005B680493954B9B681093049A109B134031
:106FE40002339B00914A13440433179300231693EE
:106FF4000023159300230F9304AB19461798FFF74A
:1070040025FD0346002B14D0884B1A68049B9A4232
:1070140005D8864B1B68854A536000238AE1049A8D
:10702400109B134002339B00804A1344043317938C
:10703400E2E700BF0023149311E0149B9B0001AA14
:107044001A44049B591C049110990B40774902334C
:107054009B000B445B681360149B01331493149BD3
:10706400012BEAD99DF8043003F00303DBB2022BB1
:1070740040F09C80BDF80630C3F389139BB20E9395
:10708400BDF80630C3F389139BB2502BA8BF50231D
:107094000D930D9B9BB2C3F309039AB2BDF806305E
:1070A40062F38F13ADF806300D9B08330C939DF8F3
:1070B4000430C3F3C203DBB20F930C995C4804F0B1
:1070C4005EFB1690169B002B00F0D480169804F0FB
:1070D400E6FB01A9159B0822169804F089FC159B70
:1070E40008331593049BDA43109B134001339B0030
:1070F4000B930D9A0B9B9A4242D90B9B002B08D001
:10710400049A109B134002339B00484A13440433EF
:1071140000E0484B0A930B9B002B02D00B9BDBB285
:1071240001E00D9BDBB28DF827300B9B002B01D0C7
:10713400404B00E0002308930B9B002B06D00D9BD3
:10714400DAB20B9BDBB2D31ADBB200E000238DF87A
:107154001F309DF82720159B0A99169804F048FCC7
:107164009DF82730159A13441593089B002B16D0CD
:107174009DF81F20159B0899169804F039FC0EE021
:10718400049A109B134002339B00284A134404338F
:107194000693159B0D9A0699169804F029FC0E9BEC
:1071A40003339A08049B1344049363E09DF804306A
:1071B40003F00303DBB2012B5CD1BDF80430C3F34D
:1071C4008313DBB2062B28BF0623DBB203F00F03C5
:1071D400DAB2BDF8043062F38913ADF80430BDF8B7
:1071E4000430C3F38313DBB2023305939DF80430F8
:1071F400C3F3C203DBB20F93059B9B0019460C48F3
:1072040004F0BDFA1690169B002B33D0169804F0A8
:1072140046FB01A9159B0822169804F0E9FB159B6F
:1072240008331593002314931BE000BF9C24002013
:10723400E0800300A8240020049B5A1C0492109AA6
:10724400134002339B003D4A1344191D159B04222D
:10725400169804F0CDFB159B04331593149B01334E
:107264001493BDF80430C3F38313DBB21A46149BA2
:107274009A42E1D8169B002B3FD0304BD3F8103400
:1072840013932E4BD3F81834002B1AD0169804F00D
:1072940015FB49E000238DF84B301398FFF7F1FA02
:1072A4000346002B02D001238DF84B309DF84B3060
:1072B400002B03D016991398FFF7A2FA139B5B686F
:1072C4001393139B002BE5D1169804F0F7FA0023CF
:1072D4008DF803300DF10303184601F07FFB174BC3
:1072E400D3F81834002B02D1049B144A53609DF840
:1072F4000330184601F088FB16E0104BD3F8103425
:10730400119305E01198FFF795FA119B5B681193AF
:10731400119B002BF6D10A4B1B881B0443F002037C
:1073240008491846FFF7D2FDFFF734FE034683F001
:107334000103DBB2184619B05DF804FB9C2400205D
:10734400442200202C83030000B585B0002303935E
:1073540022E0164BD3F81034029301238DF8073042
:107364000EE00298FFF77EFA03461A46039B9A4200
:1073740003D100238DF8073005E0029B5B6802937C
:10738400029B002BEDD19DF80730002B01D0039B0D
:1073940007E0039B01330393039B092BD9DD4FF0D3
:1073A400FF33184605B05DF804FB00BF9C240020A1
:1073B40000B585B001900B468DF80330FFF7C4FF8C
:1073C4000390039BB3F1FF3F01D1039B1EE0039B9A
:1073D400DBB219460198FFF739FA0E4BD3F8103493
:1073E400002B07D10B4A019BC2F81034019B0022E9
:1073F4005A600AE0074BD3F810345A68019B5A606C
:10740400044BD3F81034019A5A60039B184605B014
:107414005DF804FB9C24002000B583B00C4BD3F82A
:10742400103401930A4B012283F8202408E00198C8
:10743400FFF71FFA0198FFF7F1F9019B5B680193CD
:10744400019B002BF3D100BF03B05DF804FB00BF28
:107454009C24002082B00190009100BF02B07047CC
:1074640010B584B003900291039BDB88002B0AD0F3
:10747400039BDB881A461F4B009313461E4A1F4981
:10748400029803F09FF9039B1B7A052B2ED0039BD4
:107494005B7A002B12D0039B9B881A46039B1B7AB2
:1074A40019461046FFF79AFA03461A46144B53F846
:1074B40022301A461349029803F084F9039B1B688F
:1074C40019460298FFF7C6FF039B1B7A1A460E4B18
:1074D40053F82240039B9B8800211846FFF75EFA6D
:1074E400034622460949029803F06CF900BF04B030
:1074F40010BD00BF6083030070830300A8830300F2
:10750400C8220020C0830300B4220020C4830300E7
:1075140000B585B00390029113468DF80730039BA4
:107524001B7A052B0FD0039B5B7A002B06D00D4BE7
:107534001B681A460C49029803F044F90B49029857
:1075440003F040F907E09DF80730002B03D007490A
:10755400029803F037F9029803F012F900BF05B05E
:107564005DF804FBC8220020C0830300D08303001D
:1075740030B58BB007900691059204930E9B1B7B4C
:107584008DF827300E9B00221A730E990498FFF78A
:1075940067FF059B062B7FD801A252F823F000BF9A
:1075A400C1750200CB750200DB750200EF750200A5
:1075B4000D760200357602006576020007990E9872
:1075C40003F000F969E0069B1B681A4607990E98B8
:1075D40003F0F8F861E0069B1A68069B04331B6805
:1075E40007990E9803F0EEF857E0069B1A68069B7D
:1075F40004331968069B08331B6800930B460799EC
:107604000E9803F0DFF848E0069B1968069B0433E4
:107614001868069B08331B68069A0C32126801929C
:10762400009303460A4607990E9803F0CBF834E01A
:10763400069B1868069B04331C68069B08331B686A
:10764400069A0C3212680699103109680291019267
:1076540000932346024607990E9803F0B3F81CE002
:10766400069B1C68069B04331D68069B08331B6835
:10767400069A0C321268069910310968069814307B
:10768400006803900291019200932B4622460799C9
:107694000E9803F097F800E000BF00220E990498BA
:1076A400FFF736FF0E9B9DF827201A7300BF0BB01F
:1076B40030BD00BF00B587B00390029101920093E2
:1076C400029B082B5CD8009B1B7B8DF81330009B1E
:1076D40000221A7300990198FFF7C2FE0023059354
:1076E40014E0059A029B9A4209D2039A059B13441B
:1076F4001B781A462449009803F064F803E02349F0
:10770400009803F05FF8059B01330593059B072B55
:10771400E7D91F49009803F055F80023059322E0A8
:10772400059A029B9A4217D2039A059B13441B782D
:107734008DF812309DF81230184610F071FB034694
:10774400002B02D09DF8123000E02E231A46114976
:10775400009803F037F803E00F49009803F032F87B
:10776400059B01330593059B072BD9D90122009969
:107774000198FFF7CDFE009B9DF813201A7300E0DB
:1077840000BF07B05DF804FBD4830300DC8303006F
:10779400E0830300E4830300E88303002DE9F04F52
:1077A40089B0019000238DF81F3098E0514B1A687E
:1077B4009DF81F30DB0013440693069B1B78194683
:1077C4004FF001024FF00003A1F1200EC1F120009F
:1077D40003FA01F902FA0EFE49EA0E0922FA00F050
:1077E40049EA000902FA01F8CDE90489424BD3E9D8
:1077F4000001DDE9042302EA000203EA0103134362
:1078040068D0DDE904236FEA02006FEA03013A4B12
:10781400D3E9002302EA000203EA01033649C1E97D
:107824000023069B1B78184605F0E0FE03468DF8FE
:107834000F30069B1B7819464FF001024FF00003EE
:10784400A1F1200EC1F1200003FA01F502FA0EFEA7
:1078540045EA0E0522FA00F0054302FA01F4274B2B
:10786400D3E9002304EA020A05EA030B9DF80F207A
:107874004FF0000306990978A1F1200EC1F1200010
:1078840003FA01F702FA0EFE47EA0E0722FA00F0A5
:10789400074302FA01F6BB4508BFB2451AD19DF869
:1078A4000F30069A5278012A0CBF01220022D2B26C
:1078B40093420CBF01230023DBB20293069B5B6857
:1078C400002B07D0069B5B68069A12780299C9B20E
:1078D400104698479DF81F3001338DF81F30084B30
:1078E4001B789DF81F209A42FFF460AF00BF09B0D7
:1078F400BDE8F08FC0280020F8280020F0280020E0
:10790400C428002070B586B001900A468DF8032083
:107914004FF001014FF000020198A0F12006C0F1E0
:10792400200502FA00F401FA06F6344321FA05F5BB
:107934002C4301FA00F3CDE904342F4B184600F030
:10794400B9FF0390039B002B53D12C4BD3E90012B6
:10795400DDE9043403EA010304EA0204234337D1D2
:10796400019805F043FE0346002B0CD0244BD3E9C9
:107974000012DDE9043443EA010344EA0204204A24
:10798400C2E900340FE0DDE904346FEA03016FEA71
:1079940004021B4BD3E9003403EA010304EA0204A2
:1079A400174AC2E90034154BD3E90012DDE9043467
:1079B40043EA010344EA0204104AC2E900340E48CF
:1079C400104B1B680022194600F042FF039011E09F
:1079D400DDE904346FEA03016FEA0402074BD3E9DB
:1079E400003403EA010304EA0204044AC2E900344D
:1079F40000E000BF06B070BDCC280020F8280020AD
:107A0400F0280020C828002010B58AB003900B4647
:107A140001928DF80B30019B042B01D807235AE007
:107A240005F0D6FC034683F00103DBB2002B09D03A
:107A340005F07CFC0990099B0893089B002B01D05E
:107A4400089B48E0254A039B1360254A9DF80B30A8
:107A54001370244A019B1360234A4FF000034FF034
:107A64000004C2E90034214A4FF000034FF000043F
:107A7400C2E9003422E09DF80B30DB00039A134482
:107A8400079305AB00210A461A800A469A7003231D
:107A94008DF81430079B9B788DF81530079B1B7865
:107AA400184605AB124A194605F09EFC0990099B3D
:107AB4000693069B002B01D0069B0CE09DF80B302F
:107AC4005A1E8DF80B20002BD5D10A4A00210A48F2
:107AD40000F08EFE034618460AB010BDC0280020F0
:107AE400C4280020C8280020F0280020F8280020FE
:107AF40009790200A1770200EC83030000B583B08A
:107B0400114B1B68002B03D11049BA2007F0B4FFB6
:107B1400002301930CE00C4B1A68019BDB00134417
:107B24001B780121184605F0D9FC019B0133019310
:107B3400074B1B781A46019B9A42ECD8002318463F
:107B440003B05DF804FB00BFC0280020F0830300ED
:107B5400C428002086B003900291019201238DF87D
:107B640017309DF817301F4A039B13601D4A029B70
:107B740053601C4A019B9360039B44F201029342AD
:107B840012D044F20202934221D1019B154AD360E0
:107B9400144BDB681B881A46124B9A61114BDB6845
:107BA4005B68104AD36112E0019B0E4A13610D4BCE
:107BB4001B699B680B4A53610A4B1B691B68094A82
:107BC4009361084B1B695B68064AD36100BF72B6B8
:107BD40000BF9DF81730DBB2002BFAD162B600BFAC
:107BE40006B070470029002000B583B002900091D0
:107BF400019244F2010071466A4600F003F803B0B2
:107C040000BD00BF30B58BB007900691059272B6E7
:107C1400FFF702FC00BFFFF7CBF90346002BFAD1B4
:107C2400079B41F20102934219D041F201029342AF
:107C340002D8012B09D057E044F20102934229D023
:107C440044F20202934214D04EE0344B1B881B04CE
:107C540043F0010332491846FFF738F94FE02F4B40
:107C64001B881B0443F001032E491846FFF72EF925
:107C740045E0059B0993294B1B881B0443F0010332
:107C84001846099B5B681A46099B1B882649FFF71F
:107C94003CF934E0059B0893204B1B881B0443F0FC
:107CA40001031D46089B9C68089B9B68184603F0CB
:107CB400B9FF03461846089B5B681946089B1B6876
:107CC400069A0292019300910346224617492846D8
:107CD400FFF745F9114B1B881B0443F001031449BA
:107CE4001846FFF7F3F80AE00C4B1B881B0443F01B
:107CF4000103069A0F491846FFF7F6F800BF0E4B2A
:107D04001B6803F00103002B00D000BE059A0699FE
:107D14000798FFF71FFF00BF0BB030BD44220020BF
:107D240048840300688403008C840300A88403004F
:107D3400D0840300E4840300F0ED00E082B0034645
:107D44008DF8073007499DF907305B099DF8072036
:107D540002F01F02012000FA02F241F8232000BFC2
:107D640002B0704700E100E082B003468DF80730AE
:107D740008499DF907305B099DF8072002F01F02AE
:107D8400012000FA02F2203341F8232000BF02B0A0
:107D9400704700BF00E100E082B003468DF8073071
:107DA40008499DF907305B099DF8072002F01F027E
:107DB400012000FA02F2403341F8232000BF02B050
:107DC400704700BF00E100E082B003468DF8073041
:107DD40008499DF907305B099DF8072002F01F024E
:107DE400012000FA02F2603341F8232000BF02B000
:107DF400704700BF00E100E082B0034600918DF8B7
:107E040007309DF90730002B0CDA0D499DF8073037
:107E140003F00F03043B009AD2B25201D2B20B44D6
:107E24001A7609E007499DF90730009AD2B2520147
:107E3400D2B20B4483F8002300BF02B0704700BFE6
:107E440000ED00E000E100E000B585B00190019B89
:107E5400002B0AD0074B43F001030393019B9B01C2
:107E64000293039B0298984700E000BF05B05DF8B9
:107E740004FB00BF0085030000B583B00190064AEF
:107E8400019BC2F8083507211120FFF7B5FF00BF99
:107E940003B05DF804FB00BF0010014008B50D4BB2
:107EA4004FF48032C3F844230A4B4FF48032C3F8B2
:107EB40004231120FFF788FF1120FFF73FFF054B34
:107EC40001221A602F20FFF7BFFF034B01221A7013
:107ED40000BF08BD001001403E2A002008B5112053
:107EE400FFF742FF0E4B4FF48032C3F848230C4B8C
:107EF4004FF48032C3F80823094B01225A602F2023
:107F0400FFF7A2FF064B01229A60064B00221A607B
:107F14002F20FFF799FF044B00221A7000BF08BD01
:107F240000100140302A00203E2A0020024BD3F8E2
:107F340004351846704700BF0010014082B001901C
:107F44000091019A009BD31A23F07F43184602B094
:107F54007047000082B00190034A019BC2F840358B
:107F640000BF02B0704700BF0010014086B001900E
:107F7400284B1B68002B03D1264A019B136045E064
:107F8400019B1A68234B1B681B689A4210D8214B2B
:107F94001B68204A12681168019A12688A1A1A60CA
:107FA4001C4B1A68019BDA611A4A019B13602DE08D
:107FB400019B1B680393174B1B680593154B1B68A8
:107FC400049309E0049B1B68039AD31A0393049B4C
:107FD4000593049BDB690493049B002B04D0049B4E
:107FE4001A68039B9A42EDD3049B002B05D0049B93
:107FF4001A68039BD21A049B1A60019B039A1A60A5
:10800400019B049ADA61059B019ADA6100BF06B00C
:10801400704700BF2C2A002000B587B001902A4B7E
:108024001B680393284B1B680593059B049308E086
:10803400049A019B9A4208D0049B0593049BDB6934
:108044000493049B002BF3D100E000BF049B002B9E
:1080540001D1002333E0059A049B9A4214D11A4BB0
:108064001B68DB69184A1360174B1B68002B0BD184
:10807400164B01229A60164B00221A60154B0122FE
:108084001A702F20FFF7E0FE049B1B680293049BE9
:10809400DA69059BDA61059BDB690493049B002B79
:1080A40005D0049B1A68029B1A44049B1A60064B71
:1080B4001B68039A9A4214BF01230023DBB21846BB
:1080C40007B05DF804FB00BF2C2A0020001001401B
:1080D400302A00203F2A002008B51120FFF75CFE5B
:1080E40000BF08BD08B51420FFF756FE00BF08BD49
:1080F40000B583B00190019B5B69019A92691046B7
:10810400984700BF03B05DF804FB000000B585B0DC
:108114002B4B1B68002B4ED000230193FFF706FF67
:108124000246284B1B6819461046FFF707FF0290CA
:10813400234B1B6803931DE0039B1A68029B9A421E
:108144001CD8039B1B68029AD31A0293039B1B68D7
:10815400019A13440193039B0093039BDB690393EC
:10816400009B1B7C002B05D0009B00221A740098F6
:10817400FFF7BEFF039B002BDED100E000BF124BD4
:108184001A78124B1B789A420CD1104B1B7801338E
:10819400DAB20E4B1A700D4B1B78022B02D10B4B2B
:1081A40000221A70094B1B781946094A019B42F8B0
:1081B4002130FFF797FF00BF05B05DF804FB00BF57
:1081C4002C2A0020302A00203C2A00203D2A0020AE
:1081D400342A002082B00190184B1A78184B1B786F
:1081E4009A4223D0154B1B780133DAB2134B1A7021
:1081F400124B1B78022B02D1104B00221A700F4B2A
:108204001B781A460F4B53F82220019B1A60019BDE
:108214001A680D4B1B6813440B4A13600A4B1B6806
:1082240023F07F43084A1360012303E0019B0022EB
:108234001A600023184602B0704700BF3C2A002091
:108244003D2A0020342A0020302A002088B00390E0
:10825400029101920023079338E0204B1B68069398
:10826400069B1A68039B9A4206D9069B1A68039BCD
:10827400D21A069B1A602DE0069B1B68039AD31A38
:108284000393069B1B68079A13440793069B0022DB
:108294001A60124B1B680593069BDB690F4A136037
:1082A400069BDB68002B11D0029A079B134423F032
:1082B4007F42069B5A60069BDA68069B9A60019B84
:1082C4001A68069BDA61019B059A1A60034B1B68C6
:1082D400002BC2D100BF08B0704700BF2C2A002079
:1082E40000B589B0019000238DF81F30664B1B68E0
:1082F4000593AAE0019B002B05D0019B0693069BE6
:10830400DB69019361E0614B1B781A4613465B00FD
:108314001344DB005D4A1344043304935B4B1B7822
:108324000133DAB2594B1A70584B1A78574B9B7871
:108334009A4202D1554B00221A70049B5B68069343
:10834400049B1B78022B04D0032B1BD0012B1FD0C2
:108354001DE0049B5B681846FFF75EFE0346002B96
:1083640002D001238DF81F30069B00221A746CE0A2
:10837400454B1B680393039B00221A74039BDB6920
:10838400414A1360404B1B68002BF1D15DE05CE077
:1083940000BF069B1B7C002B00D056E0049B9A6810
:1083A400069B5A60049BDA68069B9A60049B1A69D0
:1083B400069BDA60049B5A69069B9A61344B1B78CE
:1083C400002B02D0069B00225A60069B5A68314B50
:1083D4001B68D31A23F07F432F4A93420ED8069B7F
:1083E4005A682C4B1B6819461046FFF7A7FD024636
:1083F400069B9B681A44069B1A6017E0254B1A6873
:10840400069B5B6819461046FFF798FD0290069B91
:108414009A68029B9A4206D9069B9A68029BD21AD2
:10842400069B1A6002E0069B00221A60069B00224B
:108434005A60069B00229A60069B01221A74069BCE
:108444000022DA610698FFF791FD019B002B7FF46F
:1084540051AF0E4B1A780D4B5B789A427FF44AAFBA
:108464009DF81F30002B04D1074B1A68059B9A42D4
:1084740001D0012300E0002303F00103DBB218461E
:1084840009B05DF804FB00BF2C2A0020202900203D
:108494003F2A0020302A0020FEFF7F0010B588B05C
:1084A4000190274B1B68002B44D0254B1B681B688D
:1084B4000793FFF73BFD0690224B1B680593059934
:1084C4000698FFF73BFD0346033304931E4B1B78CA
:1084D40083F00103DBB2002B01D0FFF7DFFC049A29
:1084E400079B934238BF1346059A13440593059B93
:1084F40023F07F4305930598FFF72CFDFFF716FD46
:10850400039006990398FFF719FD0346DC1C0699AE
:108514000598FFF713FD03469C420DD9FFF706FDAE
:1085240003461846FFF716FD2F20FFF78DFCFFF7D3
:10853400D3FD01E0FFF7D2FC00BF08B010BD00BFBF
:108544002C2A0020302A00203E2A002000B587B0C3
:108554000023019300238DF81730194B1B680493F3
:10856400184B1B6803936B461846FFF733FE03460C
:108574008DF80B309DF80B30002B08D0009B01AA1E
:1085840004991846FFF762FE01238DF81730019B0A
:108594001846FFF7A5FE0346002B02D001238DF8F1
:1085A40017309DF81730002B02D00398FFF776FFA1
:1085B400054B00221A7000BF07B05DF804FB00BF32
:1085C400302A00202C2A00203F2A002082B00346B3
:1085D4008DF80730034A9DF80730537000BF02B08E
:1085E400704700BF2029002084B00190144B5B78B1
:1085F40001338DF80F30124B9B789DF80F209A426F
:1086040002D100238DF80F300D4B1B789DF80F20FD
:108614009A4201D100230FE0019B9DF80F201A70AC
:10862400074B5B781A4613465B001344DB00044A8D
:10863400134404330293029B184604B0704700BFEE
:108644002029002000B589B0039002910192009383
:108654000023079300238DF816300DF116031846F6
:1086640000F0BCF90DF117031846FFF7BDFF0690A3
:10867400069B002B02D10423079318E0069B0122DA
:108684001A70069B039A5A60FFF750FC0246069B39
:108694009A60069B029ADA60069B019A1A61069B0D
:1086A400009A5A619DF817301846FFF78FFF9DF81E
:1086B4001630184600F0A8F9079B002B01D1FFF7EC
:1086C40011FD079B184609B05DF804FB00B587B09F
:1086D40001900B468DF803300023059300238DF899
:1086E4000E300DF10E03184600F078F90DF10F036A
:1086F4001846FFF779FF0490049B002B02D1042352
:1087040005930BE0049B9DF803201A70049B019AC7
:108714005A609DF80F301846FFF758FF9DF80E3049
:10872400184600F071F9059B002B01D1FFF7DAFC24
:10873400059B184607B05DF804FB000008B50E4B16
:108744000022C3F840210C4B0022C3F844210A4BF9
:108754000022C3F84821084B0022C3F84C21064BE1
:108764000022C3F80021044B0022C3F80421FFF7C0
:10877400CDFC00BF08BD00BF0010014008B5FFF7E5
:10878400E5FE00BF08BD000008B5FFF7A7FB134BCB
:1087940000221A70114B00225A70104B0B229A704F
:1087A4000F4B00221A600F4B00221A700E4B00224E
:1087B4001A701420FFF708FB07211420FFF71CFB95
:1087C4001420FFF7BBFA0020FFF756FBFFF7AEFBC0
:1087D4000246064B1A600023184608BD20290020D3
:1087E4002C2A00203C2A00203D2A0020302A002088
:1087F40086B003900B4601928DF80B30134B9B7897
:10880400002B01D108231EE0019B002B01D107237B
:1088140019E0039B002B01D1072314E0039B1B6881
:108824001B7C002B01D008230DE0039B1B680593E0
:10883400059B00221A74059B9DF80B205A74059B16
:10884400019A5A610023184606B070472029002077
:1088540000B587B0039002910192039B0593144BDA
:108864009B78002B01D108231EE0039B002B01D130
:10887400082319E0029B042B01D8072314E0059B6D
:108884005B69002B01D108230EE0059B5B7C012B67
:1088940001D1029B00E000230493019B049A0299F6
:1088A4000598FFF7CFFE0346184607B05DF804FBB2
:1088B4002029002000B585B00190019B03930D4B46
:1088C4009B78002B01D1082310E0019B002B03D0DF
:1088D400039B5B69002B01D1082307E0039B002263
:1088E4001A7402210398FFF7F1FE0346184605B0F7
:1088F4005DF804FB2029002082B0EFF3108300937D
:10890400009B019372B6019B184602B0704762B691
:1089140000BF704700B585B00190FFF7EDFF0390ED
:10892400164B9B68002B1BD1144B01229A60144BED
:10893400D3F88020134B1340104A1360104B114A94
:10894400C3F880200E4BD3F884300C4A53600C4B90
:108954004FF0FF32C3F88420019B00221A7002E01A
:10896400019B01221A70039B002B01D1FFF7CFFF5B
:108974000023184605B05DF804FB00BF402A002020
:1089840000E100E0FC06FFBD00B585B003468DF8AC
:108994000730104B9B68002B16D09DF80730002B36
:1089A40012D1FFF7A9FF03900B4A0A4B1B6813600F
:1089B400094A084B5B685360064B00229A60039B8C
:1089C400002B01D1FFF7A3FF0023184605B05DF883
:1089D40004FB00BF402A002000E100E000B583B0A2
:1089E400019000F02BF80346012B03D005494320E6
:1089F40007F042F80198FFF78DFF00BF03B05DF860
:108A040004FB00BF0885030000B583B003468DF85E
:108A1400073000F013F80346012B03D00649512018
:108A240007F02AF89DF807301846FFF7ADFF00BF9E
:108A340003B05DF804FB00BF0885030084B0EFF3C6
:108A440005830193019BC3F308030393039B002B4A
:108A54000DD1EFF314830093009B0293029B03F068
:108A64000103002B0CBF01230023DBB200E0012330
:108A7400184604B0704782B00190019B03F00303D1
:108A8400002B0CBF01230023DBB2184602B0704751
:108A940000B585B00190002303930EE00A4A039BBE
:108AA40052F82330002B05D0074A039B52F8233099
:108AB40001989847039B01330393039B032BEDD940
:108AC40000BF05B05DF804FB582A002082B0019075
:108AD4000091019B1B78013B052B61D801A252F840
:108AE40023F000BF018B0200098B02002F8B0200D0
:108AF400618B0200818B02009D8B0200009B00228F
:108B04001A704EE0009B01221A70019B1A89009B87
:108B14009A81019B9A88009BDA81019BDA68009B09
:108B24009A60009B00221A743BE0009B02221A7098
:108B3400019B1A89009B9A81019B9A88009BDA8188
:108B4400019BDA68009B9A60019B9B7D062B0CBFFE
:108B540001230023DAB2009B1A7422E0009B032253
:108B64001A70019BDA88009B9A81019B1A89009BE9
:108B7400DA81019BDA68009B9A6012E0009B042270
:108B84001A70019BDA88009B9A81009B0022DA818B
:108B9400009B00229A6004E0009B05221A7000E00A
:108BA40000BF00BF02B0704784B001900091019BE8
:108BB4000393039A009B9A4206D2039B1B68B3F16A
:108BC400FF3F01D0012300E0002303F00103DBB2E7
:108BD400184604B0704782B00190019B5B88033350
:108BE4009B00019A1344184602B0704700B583B045
:108BF400019000910198FFF7EEFF0246009B9A4214
:108C040001D902230CE0019B9B884FF6FF7293422B
:108C140003D0019B1B88002B01D1012300E000231A
:108C2400184603B05DF804FB00B583B00190019BC6
:108C3400002B13D00D4BDB681A46019B9A420DD8CA
:108C44000A4B1B691A46019B9A4207D30198FFF706
:108C540012FF0346002B01D0012300E0002303F0A0
:108C64000103DBB2184603B05DF804FB7422002054
:108C740082B003460A46ADF806301346ADF8043018
:108C8400BDF80620134913469B0013449B000B4474
:108C940008331A88BDF804301344ADF80430BDF825
:108CA40006200C4913469B0013449B000B440A33D3
:108CB4001A88BDF804301344ADF80430BDF804300C
:108CC40040F2FF32934294BF01230023DBB21846E3
:108CD40002B070476C2A002084B0019000910A23EE
:108CE40003930023ADF80A3027E0BDF80A201749A2
:108CF40013469B0013449B000B4404331A68009BE7
:108D04009A4215D2BDF80A20104913469B00134419
:108D14009B000B4404331B6803F58052009B9A426A
:108D240006D900230393019BBDF80A201A8008E0AA
:108D3400BDF80A300133ADF80A30BDF80A30012B12
:108D4400D3D9039B184604B0704700BF6C2A002097
:108D540082B001900091009B9B7D022B09D9019B5D
:108D64001A89009BDB8813449BB203339AB2019B9C
:108D74001A81019B5A89009BDB88D31A9BB2033B5F
:108D84009AB2019B5A8100BF02B0704700B583B00C
:108D9400074B1B681946002300930823054A06481D
:108DA40002F00EF90346184603B05DF804FB00BF59
:108DB400942A0020C08503007422002000B585B0E9
:108DC40003900399002300930823044A044802F003
:108DD400F7F80346184605B05DF804FBC8850300A0
:108DE4007422002000B585B003460091ADF806302A
:108DF40000238DF80F30BDF806300333ADF80A3088
:108E0400BDF80A3040F2FD32934201D909234AE009
:108E14000023ADF80C303BE0BDF80C202449134688
:108E24009B0013449B000B441B78002B2BD1BDF8F3
:108E34000A20BDF80C3011461846FFF719FF034607
:108E4400002B20D001238DF80F30009BBDF80C209F
:108E54001A80BDF80C20BDF80C1015480B469B0079
:108E64000B449B0003440A331988BDF80A300B44B1
:108E740098B20F4913469B0013449B000B440A33DA
:108E840002461A8008E0BDF80C300133ADF80C300E
:108E9400BDF80C30012BBFD99DF80F30002B01D049
:108EA400002300E00723184605B05DF804FB00BF6B
:108EB4006C2A002082B003460A46ADF806301346F9
:108EC400ADF80430BDF80420BDF804100C480B467E
:108ED4009B000B449B0003440A331988BDF80630F9
:108EE400CB1A9BB2033B98B2054913469B0013442B
:108EF4009B000B440A3302461A8000BF02B070473D
:108F04006C2A002008B50121024801F0E1FA034669
:108F1400184608BD682A002000B585B003460091B4
:108F2400ADF80630BDF80620234913469B001344D0
:108F34009B000B4404331B6803F580530293009B8E
:108F44001B680393039B002B04D00398FFF743FE95
:108F5400039024E0BDF80620174913469B001344F0
:108F64009B000B4404331B680833039317E00299F6
:108F74000398FFF73BFE0346012B09D0022B0CD0CC
:108F8400002B00D00BE0009B039A1A6001230EE033
:108F94000398FFF720FE039001E0002307E0029905
:108FA4000398FFF701FE0346002BE0D10023184687
:108FB40005B05DF804FB00BF6C2A002000B585B045
:108FC40001900091019B5B681846FFF72DFE034654
:108FD400002B19D0019B1A89244B1B899A4213D167
:108FE400019B1A68019B5B689B689A420CD1019BA8
:108FF4005B6819460098FFF76FFE0346002B0CBF11
:1090040001230023DBB22CE0009B00221A8023E022
:109014000023029310E0029B0393039B9A68019B35
:109024001B689A4208D1029A019B5A600F4B1A8915
:10903400019B1A81012314E0009B1B8802AA11469C
:109044001846FFF769FF0346002BE4D1009B1B88F9
:1090540001339AB2009B1A80009B1B88012BD7D93D
:109064000023184605B05DF804FB00BF9C2A0020CD
:1090740000B587B00390029101920093304B1B78A6
:10908400DBB283F00103DBB2002B01D0022353E0F7
:10909400019B002B02D0009B002B48D105234BE001
:1090A400009B9B881946274A0B469B000B449B0058
:1090B40013441B78002B33D124E0009B1B680593D9
:1090C400039B002B06D0059B9A88039B1B889A421E
:1090D40000D017E0029B002B06D0059B1A88029B48
:1090E4001B889A4200D00DE0059B9A68019B1A6088
:1090F400009B1A68019B5A60134B1A89019B1A81C1
:10910400002319E0009B9B88009A11461846FFF73C
:1091140003FF0346002BD0D1009B00221A6000E01D
:1091240000BF009B9B8801339AB2009B9A80009BEE
:109134009B88012BB4D90A23184607B05DF804FBB9
:109144004C2A00206C2A00209C2A002000B585B0FF
:109154000190084B0199184601F0A2F803901C22D3
:10916400002103980EF0C0FE039B184605B05DF87D
:1091740004FB00BFEC22002000B583B00190044B37
:109184000199184601F0A5F800BF03B05DF804FB8F
:10919400EC22002000B583B00190054B01991846DC
:1091A40001F0ABF80346184603B05DF804FB00BFBA
:1091B400EC22002000B583B00190044B01991846BD
:1091C40001F0B4F800BF03B05DF804FBEC2200200A
:1091D40008B50A4B1B68002B04D1094940F27A20D8
:1091E40006F04AFC0121054801F08AF90346002BE8
:1091F40014BF01230023DBB2184608BD542A002003
:109204007485030000B587B003900291039B02228A
:109214009A750299039B1A1D00230093042307489F
:1092240001F0CEFE0590059B002B01D1002300E048
:109234000E23184607B05DF804FB00BF742200201B
:1092440000B587B003900291039B1B69002B01D0EA
:10925400032200E00122039B9A75029B08331946FE
:10926400039B03F10C02002300930423064801F03E
:10927400A7FE0590059B002B01D1002300E00E23DF
:10928400184607B05DF804FB7422002000B587B0CF
:1092940003900291039B1B78032B01D1052200E06C
:1092A4000622039B9A75029B04331946039B03F120
:1092B4000802002300930423064801F081FE059070
:1092C400059B002B01D1002300E00E23184607B0B4
:1092D4005DF804FB7422002000B587B003900B46B0
:1092E400ADF80A3003990023009304230C4A0D4877
:1092F40001F066FE0590059B002B01D00E230BE0C8
:10930400BDF80A20084913469B0013449B000B44F4
:10931400103301221A700023184607B05DF804FBCD
:10932400D0850300742200206C2A002000B589B087
:10933400019002AB00221A605A609A60019BDB68BC
:1093440002930DF1160202AB11461846FFF736FEE2
:109354000346002B12D0039B0693069B9A88019B1D
:10936400DA80069B1A88019B1A81039BBDF816209C
:1093740011461846FFF7B0FF079001E00A23079350
:10938400079B184609B05DF804FB000000B587B0E0
:109394000190019B981D02AA0D4B0021FFF768FE66
:1093A4000590059B002B08D1039A094B9B8819460D
:1093B4001046FFF791FF059004E0082200210448BD
:1093C4000EF092FD059B184607B05DF804FB00BF44
:1093D400AC2A002000B587B003900291039B0122C0
:1093E4009A75029B0C331846039B1A69039BDB880E
:1093F4009900002300930B460146074801F0E0FD65
:109404000590059B002B01D1002300E00E23184694
:1094140007B05DF804FB00BF7422002082B0174B34
:109424001B8901339AB2154B1A81144B00225A80BE
:10943400124B00221A730023ADF8063017E0BDF872
:109444000610BDF806200E4813469B0013449B00EB
:1094540003441B78002B0CBF01230023DAB2074B13
:109464000B449A72BDF806300133ADF80630BDF8EE
:109474000630012BE3D900BF02B070479C2A0020BC
:109484006C2A002084B0019000238DF80F30002353
:10949400ADF80C3031E0BDF80C301C4A13449B7A13
:1094A400002B25D0BDF80C30184A134400229A72C0
:1094B400BDF80C20164913469B0013449B000B4433
:1094C4000C331B68002B13D1BDF80C201049134634
:1094D4009B0013449B000B4410331B78002B07D0D4
:1094E400019BBDF80C201A8001238DF80F3008E091
:1094F400BDF80C300133ADF80C30BDF80C30012B45
:10950400C9D99DF80F30184604B070479C2A002032
:109514006C2A002008B5084B05221A70074B02225A
:109524009A80064B1B68194600230122044801F067
:109534001FFE0346184608BD9C2A0020942A0020DA
:109544007422002000B583B0164B5B88ADF802305E
:10955400BDF80220144913469B0013449B000B449E
:109564000C331B68002B14D10E4B04221A70BDF867
:1095740002200D4913469B0013449B000B44043303
:109584001B68194600230122084801F0F1FD0190EF
:1095940002E0FFF7BFFF0190019B184603B05DF89E
:1095A40004FB00BF9C2A00206C2A002074220020A7
:1095B40000B587B0114B5B680593114B1A68104BCB
:1095C4009B889B0013440493059B5B880333ADF88D
:1095D4000E300A4B03221A700499084B5A68BDF8DE
:1095E4000E309800002300930346064801F0E8FC7F
:1095F4000346184607B05DF804FB00BF9C2A002010
:10960400942A00207422002000B583B00A4B5B88A2
:109614000A491846FFF780FC0346002B03D0FFF7E6
:10962400C7FF019002E0FFF78DFF0190019B1846F0
:1096340003B05DF804FB00BF9C2A0020A02A002090
:1096440008B50A4B06221A70084B5B881946084A6B
:109654000B469B000B449B00134404331B681846C1
:10966400FFF7ACFB0346184608BD00BF9C2A002048
:109674006C2A002008B5054B07221A70034B002200
:109684005A60FFF783FB0346184608BD9C2A002056
:1096940008B50D48FFF7F6FE034683F00103DBB27D
:1096A400002B0BD0094B00221A70084B00225A8061
:1096B400064B00225A6041F61D5302E0FFF7A4FF57
:1096C4000346184608BD00BF9E2A00209C2A00209D
:1096D40082B0094B5B680193019B5B880333ADF84F
:1096E4000230064B9A88BDF8023013449AB2034BF9
:1096F4009A8000BF02B070479C2A0020942A002060
:1097040082B0184B1B680193174B5B881946174AA4
:109714000B469B000B449B00134404331B68114A03
:109724001360114B5B881946104A0B469B000B448F
:109734009B0013440433019A1A600B4B5B8819464F
:10974400084B9888094A0B469B000B449B00134422
:10975400083302461A80034B02229A8000BF02B0EB
:10976400704700BF942A00209C2A00206C2A002005
:1097740008B51A4B1B78072B2CD801A252F823F0FA
:10978400A5970200D9970200D9970200B197020069
:10979400BD970200C9970200C9970200D197020041
:1097A400FFF73CFE0D4B01221A7014E0FFF790FF07
:1097B4000A4B02221A700EE0FFF7A2FF074B0622A3
:1097C4001A7008E0054B07221A7004E0034B0122CB
:1097D4001A7000E000BF00BF08BD00BF9C2A002033
:1097E40000B587B0019000910F230593019B002BD6
:1097F40004D0624B00225A600123BBE0009B1B791A
:10980400032B00F2AB8001A252F823F0219802004E
:109814002F980200BD980200DD980200009B0122EF
:109824001A71FFF7B3FA05909BE000238DF813300B
:109834000023ADF810302BE0BDF81020504913463A
:109844009B0013449B000B441B78022B1BD1BDF8D7
:1098540010204B4913469B0013449B000B440022E9
:109864001A7001238DF81330BDF8102044491346B3
:109874009B0013449B000B4404331B681846FFF7FA
:109884009DFA059008E0BDF810300133ADF81030B2
:10989400BDF81030012BCFD99DF8133083F00103AC
:1098A400DBB2002B5CD0354B01221A70334B002203
:1098B4005A6041F61D535DE0009B00221A71314B42
:1098C40002229A802F4B1B681946002301222E483E
:1098D40001F04EFC059044E0009B00221A71294BD4
:1098E4001B681846FFF76AFA0590284B5B88ADF8A9
:1098F4000E30244B1B680293BDF80E2020491346FA
:109904009B0013449B000B4404331B681D4A1360E3
:10991400BDF80E201A4913469B0013449B000B44C8
:109924000433029A1A60BDF80E20164B9888144925
:1099340013469B0013449B000B44083302461A80D1
:10994400104B02229A80BDF80E200D4913469B004D
:1099540013449B000B4400221A7002E000BF00E095
:1099640000BF059B002B04D0044B00225A600E2339
:1099740000E00023184607B05DF804FB4C2A0020E1
:109984006C2A0020942A0020742200209C2A0020A3
:1099940000B587B001900091009B9B8A1A4613463C
:1099A4009B0013449B003A4A13440493019B002BED
:1099B40005D000990498FFF7CBF9012363E0049BD9
:1099C4005A68049B1B899B0013440393009B9B7D53
:1099D400062B4DD801A252F823F000BF239A0200AF
:1099E400479A02002F9A02003B9A0200FD99020056
:1099F400539A02006D9A0200264B00225A60009B83
:109A04009B69244A136024492248FFF7D7FA034686
:109A140083F00103DBB2002B01D00A2333E0039966
:109A24000098FFF7EFFB059025E003990098FFF7F6
:109A340007FC05901FE003990098FFF7CBFC059005
:109A440019E003990098FFF721FC059013E0009BAF
:109A540006229A750F4B5A680F4B1B8819461046FD
:109A6400FFF73AFC059006E041F61D53059302E02A
:109A74000F23059300BF059B002B03D00099049886
:109A8400FFF766F9059B184607B05DF804FB00BFB5
:109A94006C2A0020B42A0020C02A002000B585B01A
:109AA40001900091019B002B01D0012323E0009B36
:109AB4001B79012B0BD0022B14D0002B16D1009B49
:109AC40002221A710098FFF731FC039012E000980B
:109AD400FFF75CFC0390039B0A2B0AD141F61D534C
:109AE400039306E041F61D53039303E00F2303930E
:109AF40000E000BF039B184605B05DF804FB0000BE
:109B040000B585B00190019B002B01D001233BE0FF
:109B14001F4B1B7B002B03D01D4B00221A7301E04B
:109B2400FFF726FE1A4B1B78013B062B28D801A20F
:109B340052F823F0559B02005D9B0200659B0200D6
:109B44006D9B0200859B0200759B02007D9B0200B9
:109B5400FFF79EFD039016E0FFF756FD039012E019
:109B6400FFF726FD03900EE0FFF7ECFC03900AE0FC
:109B7400FFF766FD039006E0FFF77CFD039002E02B
:109B84000F23039300BF039B184605B05DF804FB45
:109B94009C2A002000B589B001903F4B1B68002B24
:109BA40005D13E48FFF7F6FA02463B4B1A603A4BA2
:109BB4001B68002B04D13A4940F2825005F05CFF47
:109BC400354B1B681B78013B052B2CD801A252F89E
:109BD40023F000BFF19B0200019C0200019C0200E3
:109BE400119C0200119C0200219C02002A4B1B685C
:109BF40019460198FFF7F4FD019017E0264B1B6806
:109C040019460198FFF7C4FE01900FE0224B1B6830
:109C140019460198FFF742FF019007E00198FFF70A
:109C24006FFF019002E00F23019300BF019B002B03
:109C34002BD003AB00221A605A609A60DA601A6172
:109C4400019B41F61D52934201D0019B00E0002389
:109C54000493114B1B6803AA11461846FEF736FFFE
:109C640003AB1846FEF714FF0B4B00221A600023C7
:109C740001930A48FFF79EFAFFF7AAFA034683F016
:109C84000103DBB2002B02D187E700BF00E000BF75
:109C940000BF09B05DF804FBC42A0020C82A0020D4
:109CA4007485030008B50121054800F0F9FB03465B
:109CB400002B02D10020FFF76DFF00BF08BD00BFDD
:109CC400542A002000B583B00190019B5B681846BC
:109CD400FFF760FF00BF03B05DF804FB00B58BB075
:109CE4000390029101928DF803300023ADF82430E3
:109CF4000023ADF82630514B1B78DBB283F001030F
:109D0400DBB2002B01D0022393E0029B002B01D194
:109D140005238EE0029B1B884FF6FF72934203D00B
:109D2400029B5B88002B01D1042382E0029B5B68C9
:109D34001846FEF7A0FE034683F00103DBB2002BB6
:109D440001D0032375E0019B002B11D1029B9B687A
:109D5400ADF826300DF11A02BDF82630114618462A
:109D6400FFF740F80890089B002B09D0089B60E09F
:109D7400019B1B88ADF81A30019B5B88ADF8263037
:109D840005AB1846FFF7E2F90790079B002B09D1B2
:109D9400BDF81A20BDF8263011461846FFF78AF898
:109DA400082346E0079B9DF803201A70079B0022B6
:109DB4009A75BDF81A20079B9A82029B5A68079BE2
:109DC4001A61FFF79FF80246079BDA60029B1A8824
:109DD400079B1A81029B5A88079B9A80079BBDF8B0
:109DE4002620DA809DF80330032B06D1079B04223A
:109DF4009A75039B1A68079B9A61079BBDF82420F8
:109E04005A8105AB1846FFF7B7F9039B002B0DD019
:109E1400039B00225A60079BDA68039B1A60039B2A
:109E240000229A72064B1A89039B1A81FFF73AFFA4
:109E3400002318460BB05DF804FB00BF4C2A002039
:109E44009C2A002000B585B001900091019B002B55
:109E540002D0009B002B01D1052329E00DF10A0358
:109E640019460198FFF7AAF80346002B1FD0019B5F
:109E74005B680393BDF80A301A4613469B001344EB
:109E84009B0008330C4A134404330121184600F0A4
:109E94001FFB009B039A1A60019B5B6803F10C0291
:109EA400009B5A60019B01229A72002300E00A235E
:109EB400184605B05DF804FB6C2A002000B585B097
:109EC4000190019B002B01D1052339E00DF10A0318
:109ED40019460198FFF772F80346002B2DD0BDF800
:109EE4000A301946184A0B469B000B449B00134446
:109EF4000C331B68002B1DD0019B9B7A002B19D0BF
:109F0400BDF80A301A46104913469B0013449B00BF
:109F14000B440C331B68591E0B4813469B00134417
:109F24009B0003440C331960019B00229A720023A6
:109F3400039304E00623039301E00A230393039BA2
:109F4400184605B05DF804FB6C2A002000B585B006
:109F540001900B46ADF80230134B1B78DBB283F053
:109F64000103DBB2002B01D0022319E0019B002B7B
:109F740001D1052314E00DF10A02BDF802301146A7
:109F84001846FEF72FFF0390039B002B07D1BDF863
:109F94000A20019B1A80019BBDF802205A80039B72
:109FA400184605B05DF804FB4C2A002000B585B0C6
:109FB40001901F4B1B78DBB283F00103DBB2002B53
:109FC40001D002232FE0019B002B01D105232AE0BD
:109FD400019B1B88022B01D9042324E0019B1B88CD
:109FE4001A4613469B0013449B00124A13440293DF
:109FF400019B5B880333029A5289934210DC019BD4
:10A004005A88019B1B8819461046FEF753FF019B93
:10A0140000221A80019B00225A800023039301E04E
:10A0240004230393039B184605B05DF804FB00BFAB
:10A034004C2A00206C2A002000B583B001900091C6
:10A044000223002200990198FFF748FE03461846B0
:10A0540003B05DF804FB00B585B003900291019252
:10A06400019B002B01D1052306E00223019A0299EA
:10A074000398FFF733FE0346184605B05DF804FB6A
:10A0840000B583B001900091019B002B01D1052301
:10A0940006E00323002200990198FFF71FFE034600
:10A0A400184603B05DF804FB00B585B00346ADF86F
:10A0B4000630184B1B78DBB283F00103DBB2002BB4
:10A0C40001D0022322E0BDF806304FF6FF7293421E
:10A0D40001D104231AE002AB1846FFF737F80390C6
:10A0E400039B002B01D1082310E0039B05221A7067
:10A0F400039B01221A71039BBDF80620DA8002AB90
:10A104001846FFF739F8FFF7CDFD0023184605B0D0
:10A114005DF804FB4C2A002000B585B0029201933F
:10A124000346ADF80E300B46ADF80C3003A90DF123
:10A134000E00019B029AFEF79BFF0346184605B0EA
:10A144005DF804FB00B585B0034602910192ADF8B9
:10A154000E300DF10E01019B029A0020FEF788FFDC
:10A164000346184605B05DF804FB00B585B0034608
:10A1740002910192ADF80E300DF10E00019B029A8E
:10A184000021FEF775FF0346184605B05DF804FB91
:10A1940082B001900091019B002B02D0009B002B08
:10A1A40001D1052304E0019B1A68009B1A60002377
:10A1B400184602B0704786B001900091019B53E8A5
:10A1C400011F8AB2D88902449889824228BF121A90
:10A1D4001889824202BFBFF32F8F002307E0C2EA2F
:10A1E400010243E801200028E9D14FF001038DF872
:10A1F4000F30059002910492029A009B1A609DF818
:10A204000F30DBB2184606B0704784B00190019954
:10A2140051E8013FC3EA034341E80132002AF7D180
:10A224000392029300BF04B0704786B0019000917E
:10A23400019B53E8021F1FFAA1F2D888824202BF91
:10A24400BFF32F8F00230DE0D889024498898242FE
:10A2540028BF121AC1EA024243E802200028E8D1CA
:10A264004FF001038DF80F30059002910492029A89
:10A27400009B1A609DF80F30DBB2184606B0704799
:10A2840084B00190019951E8023FC3EA234341E8B5
:10A294000232002AF7D10392029300BF04B0704740
:10A2A40000B585B001900091009B19460198FFF715
:10A2B40082FF0346002B07D0019B1B68009A12887B
:10A2C40013440393039B00E00023184605B05DF894
:10A2D40004FB00B583B001900091009B1A88009B99
:10A2E4005B889A4204D10198FFF78FFF012300E0B5
:10A2F4000023184603B05DF804FB00B585B0019057
:10A304000091009B19460198FFF78FFF0346002B2D
:10A3140007D0019B1B68009A528813440393039B44
:10A3240000E00023184605B05DF804FB00B583B0D7
:10A3340001900091009B1A88009B5B889A4204D18B
:10A344000198FFF79DFF012300E00023184603B0A6
:10A354005DF804FB00B585B001900091009B5B099A
:10A364009B00019AD018009B03F01F03012202FAFC
:10A3740003F3194600F04CF8039000BF05B05DF8F4
:10A3840004FB00B585B001900091009B5B099B0024
:10A39400019AD018009B03F01F03012202FA03F371
:10A3A400DB43194600F064F8039000BF05B05DF884
:10A3B40004FB82B001900091009B5B099B00019A11
:10A3C40013441A68009B03F01F0322FA03F303F0FB
:10A3D4000103002B14BF01230023DBB2184602B093
:10A3E400704710B487B001900091019B009A53E824
:10A3F400004F104643E8000191F0000FF7D1059497
:10A4040004900391059B184607B05DF8044B704710
:10A4140010B487B001900091019B009A53E8004F5B
:10A4240044EA020043E8000191F0000FF6D10594DC
:10A4340004900391049B184607B05DF8044B7047E1
:10A4440010B487B001900091019B009A53E8004F2B
:10A4540004EA020043E8000191F0000FF6D10594EC
:10A4640004900391059B184607B05DF8044B7047B0
:10A4740010B487B001900091019B009A53E8004FFB
:10A4840004EA020043E8000191F0000FF6D10594BC
:10A4940004900391049B184607B05DF8044B704781
:10A4A40010B487B001900091019B009A53E8004FCB
:10A4B40004EB020043E8000191F0000FF6D105948B
:10A4C40004900391059B184607B05DF8044B704750
:10A4D40010B487B001900091019B009A53E8004F9B
:10A4E40004EB020043E8000191F0000FF6D105945B
:10A4F40004900391049B184607B05DF8044B704721
:10A5040010B487B001900091019B009A53E8004F6A
:10A51400A4EB020043E8000191F0000FF6D105948A
:10A5240004900391049B184607B05DF8044B7047F0
:10A5340000B583B0019001210198FFF769FF03463C
:10A54400184603B05DF804FB00B583B00190002108
:10A554000198FFF775FF0346184603B05DF804FB46
:10A5640000B583B001900B468DF80330019B002B9E
:10A5740003D10849E82005F07FFA019BDA689DF8C9
:10A5840003300199898A01FB03F31344184603B08D
:10A594005DF804FBD485030000B583B001900091FD
:10A5A400019B002B03D10849F52005F065FA009BB7
:10A5B400019AD2689B1A019A928AB3FBF2F3DBB236
:10A5C400184603B05DF804FBD485030000B585B0DC
:10A5D4000190019B002B01D10E234DE0019B1B68D0
:10A5E400002B03D12649FF2005F046FA019B5B6846
:10A5F400002B04D122494FF4807005F03DFA019BF1
:10A604009B68002B04D11E4940F2011005F034FA76
:10A61400019BDB68002B04D119494FF4817005F0CC
:10A624002BFA019B9B8A002B04D1154940F203109D
:10A6340005F022FA019B9B681A46019B5B68D31ABA
:10A644008DF80F30019B1B68019A52681A6007E06D
:10A65400019B1A681368591C11609DF80F201A7029
:10A664009DF80F305A1E8DF80F20002BF0D1019B5E
:10A674001B6800221A710023184605B05DF804FB1C
:10A68400D485030000B585B00190019B002B04D153
:10A6940020494FF4927005F0EFF90023039300234F
:10A6A4008DF80A300DF10A031846FEF797F9019B5D
:10A6B4001B681A68019B5B689A4220D9019B1B683E
:10A6C4001A68013A1A601B681B7819460198FFF74B
:10A6D40047FF0390019B9B681A46019B1B681B68FC
:10A6E400D31A8DF80B30019B1B681B799DF80B2046
:10A6F4009A4204D9019B1B689DF80B201A719DF89E
:10A704000A301846FEF780F9039B184605B05DF839
:10A7140004FB00BFD485030010B584B00190009100
:10A72400019B002B04D1154940F2471005F0A4F910
:10A73400009B002B04D111494FF4A47005F09CF93F
:10A74400009B039300238DF80B300DF10B03184687
:10A75400FEF744F9019B1B681C68621C1A6003998C
:10A764000198FFF719FF034623709DF80B30184634
:10A77400FEF74AF900BF04B010BD00BFD485030042
:10A7840000B583B00190019B002B03D10C4931200B
:10A7940005F072F9019B9B68002B0CD0019B5B694F
:10A7A400019A1069019A1168019A92689847019B6D
:10A7B40000229A6000E000BF03B05DF804FB00BF14
:10A7C4002C8603000EB400B584B00190019B002BCD
:10A7D40003D11849422005F04FF9019B5B69002B16
:10A7E40003D11449432005F047F9019B1B68002B52
:10A7F40003D11049442005F03FF9019B5B68002B0D
:10A8040003D10C49452005F037F9059B002B0AD0EC
:10A814000023039306AB039303AB1A4605990198EF
:10A8240000F0B0F900E000BF04B05DF804EB03B041
:10A83400704700BF2C86030000B583B001900B461F
:10A844008DF80330019B1A68019B9B68581C019981
:10A85400886013449DF803201A70019B9A68019B39
:10A864005B689A4202D30198FFF78AFF00BF03B0E6
:10A874005DF804FB00B587B0039002910192009348
:10A8840000230593009B03F00103002B24D00BE06D
:10A89400029B01330293059B013305939DF813300A
:10A8A40019460398FFF7C8FF029B1B788DF81330F5
:10A8B4009DF81330002BEBD106E0019B013B019383
:10A8C40020210398FFF7B8FF019A059B9A422ED9DD
:10A8D400019B002BF1D12AE0029B002B0BD00298A4
:10A8E4000DF058FB059006E0019B013B01932021EC
:10A8F4000398FFF7A1FF019A059B9A420FD9019B88
:10A90400002BF1D10BE0029B01330293059B013331
:10A9140005939DF8133019460398FFF78DFF029BAA
:10A924001B788DF813309DF81330002BEBD100BF4A
:10A9340007B05DF804FB000000B589B003900291F4
:10A9440001920093029B07930123069307E0079A61
:10A95400019BB2FBF3F30793069B01330693079A1B
:10A96400019B9A42F3D2009A069B9A4201D9009B1A
:10A9740006930B9B03F00103002B22D10A9B002BAF
:10A984001FD00B9B03F00203002B06D0009B002B6F
:10A9940003D130238DF8173002E020238DF81730CF
:10A9A40008E00A9B013B0A939DF817301946039867
:10A9B400FFF742FF0A9B002B03D0069A0A9B9A4298
:10A9C400EFD301230793009B012B03D9009B013B89
:10A9D400009309E0029A079BB2FBF3F30493049AF1
:10A9E400019B9A4200D205E0079B019A02FB03F304
:10A9F4000793E8E7029A079BB2FBF3F30493049BE3
:10AA0400079A02FB03F3029AD31A0293154A049B92
:10AA140013441B7819460398FFF70EFF079A019B0E
:10AA2400B2FBF3F30793079B002BE3D10B9B03F0DB
:10AA34000103002B11D00A9B002B0ED006E00A9BC9
:10AA4400013B0A9320210398FFF7F6FE0A9B002B93
:10AA540003D0069A0A9B9A42F1D300BF09B05DF86D
:10AA640004FB00BFCC86030000B589B005900491B7
:10AA740003920293049B002BB8BF5B42069301230D
:10AA8400079307E0039B069A92FBF3F30693079B55
:10AA940001330793039B069A9A42F3DA029A079BBF
:10AAA4009A4201D9029B07930A9B002B0AD0049B6C
:10AAB400002B04DB0B9B03F00403002B02D00A9B46
:10AAC400013B0A930B9B03F00203002B02D0029B71
:10AAD400002B16D00B9B03F00103002B11D10A9B12
:10AAE400002B0ED006E00A9B013B0A932021059817
:10AAF400FFF7A2FE0A9B002B03D0079A0A9B9A42F7
:10AB0400F1D3049B002B07DA049B5B4204932D21B1
:10AB14000598FFF791FE08E00B9B03F00403002B5C
:10AB240003D02B210598FFF787FE0B9B03F002034C
:10AB3400002B19D00B9B03F00103002B14D1029BB3
:10AB4400002B11D10A9B002B0ED006E00A9B013B7F
:10AB54000A9330210598FFF76FFE0A9B002B03D060
:10AB6400079A0A9B9A42F1D304990B9B01930A9B7F
:10AB74000093029B039A0598FFF7DEFE00BF09B01D
:10AB84005DF804FB00B58FB0059004910392059B1A
:10AB9400002B04D1C8494FF49F7004F06DFF059B4E
:10ABA4005B69002B04D1C4494FF4A07004F064FF26
:10ABB400059B1B68002B04D1BF4940F2411004F0EF
:10ABC4005BFF059B5B68002B04D1BB494FF4A1706C
:10ABD40004F052FF049B002B00F0ED81049B1B78D2
:10ABE4008DF83730049B013304939DF83730002BE4
:10ABF40000F0D8819DF83730252B40F0C781002321
:10AC04000A9301230C93049B1B788DF837309DF82D
:10AC140037302D2B04D0302B0AD02B2B10D017E03B
:10AC24000A9B43F001030A93049B0133049312E04B
:10AC34000A9B43F002030A93049B013304930AE042
:10AC44000A9B43F004030A93049B0133049302E038
:10AC540000230C9300BF0C9B002BD4D10023099339
:10AC64009DF837302A2B0CD1039B1B68191D039ABE
:10AC740011601B68099A13440993049B01330493DC
:10AC84001AE0049B1B788DF837309DF837302F2B52
:10AC940012D99DF83730392B0ED8049B0133049315
:10ACA400099A13469B0013445B001A469DF83730FB
:10ACB4001344303B0993D3E700230B93049B1B7885
:10ACC4008DF837309DF837302E2B1DD1049B01337E
:10ACD4000493049B1B788DF837309DF837302F2B65
:10ACE40012D99DF83730392B0ED8049B01330493C5
:10ACF4000B9A13469B0013445B001A469DF83730A9
:10AD04001344303B0B93E4E7049B1B788DF83730F6
:10AD14009DF837306C2B03D09DF83730682B07D162
:10AD2400049B01330493049B1B788DF83730EFE7C1
:10AD34009DF83730253B532B00F2238101A252F8B2
:10AD440023F000BF7DAF020087AF020087AF02008F
:10AD540087AF020087AF020087AF020087AF02000F
:10AD640087AF020087AF020087AF020087AF0200FF
:10AD740087AF020087AF020087AF020087AF0200EF
:10AD840087AF020087AF020087AF020087AF0200DF
:10AD940087AF020087AF020087AF020087AF0200CF
:10ADA40087AF020087AF020087AF020087AF0200BF
:10ADB40087AF020087AF020087AF020087AF0200AF
:10ADC40087AF020087AF020087AF020087AF02009F
:10ADD40087AF020087AF020087AF020087AF02008F
:10ADE40087AF020087AF020087AF020087AF02007F
:10ADF40087AF020087AF020087AF020087AF02006F
:10AE040087AF020087AF020087AF020087AF02005E
:10AE140009AF020087AF020087AF020087AF0200CC
:10AE240087AF020087AF020087AF020087AF02003E
:10AE340087AF020087AF020087AF020099AE02001D
:10AE4400C1AE020087AF020087AF020087AF0200E5
:10AE540087AF0200C1AE020087AF020087AF0200D5
:10AE640087AF020087AF020087AF020087AF0200FE
:10AE740049AF020087AF020087AF02002DAF020086
:10AE840087AF0200E5AE020087AF020087AF020081
:10AE940009AF0200039B1B68191D039A11601B680C
:10AEA4000C930C9B8DF823309DF82330194605989C
:10AEB400FFF7C2FC66E000BF78860300039B1B68B3
:10AEC400191D039A11601B680C930A9B0193099B3B
:10AED40000930B9B0A220C990598FFF7C5FD51E0DE
:10AEE400039B1B68191D039A11601B680C930C9932
:10AEF4000A9B0193099B00930B9B0A220598FFF779
:10AF04001BFD3FE0039B1B68191D039A11601B681E
:10AF14000C930C990A9B0193099B00930B9B1022A1
:10AF24000598FFF709FD2DE0039B1B68191D039A83
:10AF340011601B6807930A9B099A07990598FFF704
:10AF440099FC1FE0039B1B68191D039A11601B6881
:10AF54000C9330210598FFF76FFC78210598FFF7D3
:10AF64006BFC0C99002301930823009308231022FF
:10AF74000598FFF7E1FC05E025210598FFF75CFC47
:10AF840000E000BF049B0133049305E09DF83730D3
:10AF940019460598FFF750FC049B1B78002B7FF49F
:10AFA4001DAE00E000BF059B1B7B002B04D0059861
:10AFB400FFF7E6FB00E000BF0FB05DF804FB00BF45
:10AFC40010B586B00590049103920293059B002B63
:10AFD4000FD15C4B1B881B0443F0010318465A4AEB
:10AFE4005A490E2300930B465949FBF7A2FF0E233F
:10AFF400A4E0039B002B0FD1524B1B881B0443F08E
:10B0040001031846534A51490E2300930B465049F5
:10B01400FBF78FFF0E2391E0059B1B68002B0FD1DC
:10B02400484B1B881B0443F0010318464A4A47490E
:10B03400082300930B464649FBF77BFF08237DE07A
:10B04400029B002B0FD13F4B1B881B0443F00103D1
:10B054001846424A3D49092300930B463C49FBF7F5
:10B0640068FF09236AE0059B5B685A68029BB3FB8F
:10B07400F2F102FB01F29B1A002B0FD0314B1B881B
:10B084001B0443F001031846354A30490923009351
:10B094000B462F49FBF74DFF09234FE0049800F0BE
:10B0A40057F90346002B0FD1264B1B881B0443F092
:10B0B400010318462B4A2549102300930B462449C3
:10B0C400FBF737FF102339E0039B184600F040F9E3
:10B0D4000346002B0FD11B4B1B881B0443F00103B9
:10B0E4001846214A1949102300930B461849FBF7C7
:10B0F40020FF102322E0029A0499059800F00EF92B
:10B104000346002B0FD10F4B1B881B0443F0010394
:10B114001846164A0D49102300930B460C49FBF7B9
:10B1240008FF10230AE0059B1B68DC68089B00935A
:10B13400029B039A04990598A0470346184606B053
:10B1440010BD00BF60220020EC860300908803003D
:10B15400F486030080870300288703003C870300EC
:10B1640088870300B4870300CC870300F0870300BB
:10B1740010B586B00590049103920293059B002BB1
:10B184000FD13C4B1B881B0443F0010318463A4A79
:10B194003A490E2300930B463949FBF7CAFE0E23A6
:10B1A40064E0059B1B68002B0FD1324B1B881B04EA
:10B1B40043F001031846334A3049082300930B46F1
:10B1C4002F49FBF7B6FE082350E0039B002B0FD159
:10B1D400284B1B881B0443F0010318462A4A2749BD
:10B1E400092300930B462649FBF7A3FE09233DE000
:10B1F4000499059800F0B9F80346002B0FD11D4BB4
:10B204001B881B0443F001031846204A1B491023E2
:10B2140000930B461A49FBF78CFE102326E0059B8E
:10B224005B681B68039A02FB03F31A4604990598AA
:10B2340000F074F80346002B0FD10E4B1B881B043F
:10B2440043F001031846124A0C49102300930B469D
:10B254000B49FBF76EFE102308E0059B1B681C6975
:10B26400029B039A04990598A0470346184606B022
:10B2740010BD00BF60220020EC860300A4880300F8
:10B28400F4860300288703003C8703001888030022
:10B294004088030000B585B00190019B002B03D0CA
:10B2A400019B1B68002B28D10023039319E0039A08
:10B2B40013469B0013449B001A46154B13440193F9
:10B2C400019B1B68002B09D0019B1B68DB6901985B
:10B2D40098470346002B01D0012314E0039B01335C
:10B2E40003930C4A0A4BD31A0B4AA2FB03231B09F0
:10B2F400039A9A42DBD3002305E0019B1B68DB69B8
:10B30400019898470346184605B05DF804FB00BF52
:10B314007422002088220020CDCCCCCC84B00390B1
:10B3240002910192039BDA68029B9A4209D8029A1D
:10B33400019B13445A1E039B1B699A4201D80123A3
:10B3440000E0002303F00103DBB2184604B07047A9
:10B3540082B00190019B03F00303002B0CBF012377
:10B364000023DBB2184602B0704782B0019000910E
:10B37400019B5B681B685A1E009B1340002B0CBF8B
:10B3840001230023DBB2184602B0704729DF70475F
:10B3940000BF184628DF704700BF184600B589B0C3
:10B3A40001900091019B1B689B68002B35D002AB78
:10B3B40000221A605A609A60DA601A615A61009B2E
:10B3C4000393019B9B680793019B1B79002B02D07D
:10B3D400012B0DD01AE001238DF80830019B1B6965
:10B3E4000493019BDB680593019B5B6906930DE065
:10B3F40002238DF80830019BDB684FF4805202FB76
:10B4040003F30493019B5B69069300BF019B1B68D4
:10B414009B6802AA1046984700E000BF09B05DF897
:10B4240004FB00B587B00190019B5A69019B9B699D
:10B43400D31AB3F5805F28BF4FF4805305930422D9
:10B44400059BB3FBF2F3012B38BF01230593019B4A
:10B454001A69019B9B6913440493019BDB681A4698
:10B46400019B9B6913440393059A03990498FFF77E
:10B474008DFF0346184607B05DF804FB00B583B0A2
:10B484000190019BDA68019B1B6913441846FFF77E
:10B4940081FF0346184603B05DF804FB08B5034B6F
:10B4A40003491846FEF742FF00BF08BD00230020F1
:10B4B400E42A002008B5084B08491846FEF71DFF8A
:10B4C4000246074B1A60064B1B68002B14BF01236E
:10B4D4000023DBB2184608BD00230020E42A002024
:10B4E400E02A002000B583B02A4B1B7A002B0BD135
:10B4F400FFF7E0FF034683F00103DBB2002B03D028
:10B50400244B00225A6042E0224B02221A72224B40
:10B514001B681B79002B02D0012B07D00DE01E4BBA
:10B524001B681846FFF77DFF019009E01A4B1B6862
:10B534001846FFF7A3FF019002E00323019300BF25
:10B54400019B002B02D0112B0CD00FE0114B1B7C64
:10B5540083F00103DBB2002B18D00021022000F09D
:10B564006FF813E00B4B01221A7210E00A4B1B68B0
:10B5740003211846FFF712FF064B00221A72054BEF
:10B5840000225A60FFF78AFF00BF00E000BF03B04B
:10B594005DF804FBCC2A0020E02A002084B001904E
:10B5A4001B4B0022DA60019B1B79002B02D0012B7C
:10B5B40019D028E0019B5A69019B9B69D31AB3F502
:10B5C400805F28BF4FF480530393019B9A69039BC8
:10B5D4001A44019B9A61019B9A69019B5B699A4297
:10B5E4000ED1012310E0019B1B695A1C019B1A61B7
:10B5F400019B1A69019B5B699A4203D1012303E011
:10B6040000BF00E000BF0023184604B0704700BF2D
:10B61400CC2A002082B00190084BDB680133074A32
:10B62400D360064BDB68082B04D9044B0022DA6094
:10B63400012300E00023184602B07047CC2A002002
:10B6440000B585B001900091019B022B02D0019BB3
:10B65400032B49D1274B1B7A012B35D0022B02D067
:10B66400002B43D033E000238DF80F30019B022BD5
:10B6740002D0032B09D011E01F4B1B681846FFF7BB
:10B684008DFF03468DF80F3008E01B4B1B681846EE
:10B69400FFF7C0FF03468DF80F3000BF9DF80F3051
:10B6A400002B13D0134B00221A72134B1A68019B00
:10B6B400022B01D1002300E00D2319461046FFF7A9
:10B6C4006DFEFFF7EBFE01E000BF00E000BF094B99
:10B6D4005B7C83F00103DBB2002B02D0FFF702FF97
:10B6E40005E00BF017FF02E000BF00E000BF05B06B
:10B6F4005DF804FBCC2A0020E02A002082B0034637
:10B7040000918DF80730064B01225A74044B1B7AC2
:10B71400002B0CBF01230023DBB2184602B0704794
:10B72400CC2A002000B583B0034600918DF8073081
:10B734009DF80730012B03D09DF80730032B0DD162
:10B74400084B00225A749DF80730012B0CBF0123CB
:10B754000023DAB2034B1A74FFF7C4FE00BF03B030
:10B764005DF804FBCC2A002000B583B00190019859
:10B77400FEF72CFF0346184603B05DF804FB00B542
:10B784008BB001900091019B9B8A043B0793009A24
:10B79400079B1344DA1C079BB2FBF3F38DF81B30B1
:10B7A4000198FEF76FFF0590059B002B01D1002344
:10B7B40038E0059B00221A71059B01225A71079BF0
:10B7C4009AB2059BDA80059B09939DF81B30013BD7
:10B7D4000493099B019A1A60002308931DE00198C1
:10B7E400FEF750FF0390039B002B0ED0059B5B7963
:10B7F4000133DAB2059B5A71099B039A1A60039BC1
:10B80400019A1A60039B099304E0059800F00EF86E
:10B81400002307E0089B01330893089A049B9A428B
:10B82400DDD3059B18460BB05DF804FB00B58BB067
:10B834000190019B0793079B5B798DF81B30019B5B
:10B8440008939DF81B30013B05930023099305E001
:10B85400089B1B680893099B01330993099A059B6C
:10B864009A42F5D3089B1B680493019B0893002319
:10B8740009930BE0089B1B68039308990498FEF74F
:10B884004BFF039B0893099B013309939DF81B20ED
:10B89400099B9A42EED800BF0BB05DF804FB00B5DB
:10B8A40085B00190019B0393039B04330121184647
:10B8B400FEF70EFE00BF05B05DF804FB00B587B0CF
:10B8C4000190019B0593059B043301211846FEF763
:10B8D40017FE0346039303AB0493049B1B78002BCE
:10B8E40002D10198FFF7A2FF00BF07B05DF804FB87
:10B8F40000B58DB00390029101920093039B0693CF
:10B90400069BDB880593039B0B93009B1A1D059BE9
:10B91400B2FBF3F30A93009B0433059AB3FBF2F2F0
:10B92400059901FB02F29B1A0993009A019B1A44A0
:10B93400059B1344DA1C059BB2FBF3F38DF813301B
:10B94400069B5B799DF813209A420AD92749BA20AD
:10B9540004F092F805E00B9B1B680B930A9B013BD8
:10B964000A930A9B002BF6D100230893059A099B9E
:10B97400D31A0793079A019B934228BF1346079350
:10B984002DE09DF83830002B0BD0029A089BD0187C
:10B994000B9A099B13440433079A19460CF07AFA5C
:10B9A4000AE00B9A099B1344181D029A089B13443E
:10B9B400079A19460CF06EFA002309930B9B1B6837
:10B9C4000B93019A079BD31A0193089A079B13447C
:10B9D4000893059A019B934228BF13460793019B42
:10B9E400002BCED100BF0DB05DF804FBC888030066
:10B9F40000B587B00590049103920293002300934D
:10BA0400029B039A04990598FFF772FF00BF07B0E1
:10BA14005DF804FB00B587B005900491039202938E
:10BA240001230093029B039A04990598FFF760FF92
:10BA340000BF07B05DF804FB82B003468DF8073001
:10BA440008499DF907305B099DF8072002F01F02A1
:10BA5400012000FA02F2603341F8232000BF02B053
:10BA6400704700BF00E100E000B583B00190019B86
:10BA7400002B03D10649722003F0FEFF019B002234
:10BA84001A60BFF35F8F00BF03B05DF804FB00BF13
:10BA94008489030041DF704700BF184600B585B0B4
:10BAA40000238DF803300DF103031846FCF796FFCD
:10BAB400F1EE103A0193019B0393039B23F09F0340
:10BAC4000293029BE1EE103ABFF35F8F2620FFF74B
