:020000022000DC
:106000000000042079630200616302006363020000
:10601000656302006763020069630200000000001C
:106020000000000000000000000000006B630200A0
:106030006D630200000000006F63020071630200E4
:106040006588020073630200396602007363020010
:106050007363020073630200958B02007363020096
:1060600073630200736302007363020073630200D0
:1060700073630200916A020073630200736302009B
:106080007363020091D7020073630200736302001E
:10609000D1D7020073630200ED8D03007363020029
:1060A0007363020073630200736302007363020090
:1060B0007363020073630200000000000000000030
:1060C0007363020073630200736302007363020070
:1060D0007363020073630200736302007363020060
:1060E0007363020073630200F9690400000000009A
:1060F00000000000736302000000000073630200F0
:10610000000000000000000000000000000000008F
:10611000000000000000000000000000000000007F
:10612000000000000000000000000000000000006F
:10613000000000000000000000000000000000005F
:10614000000000000000000000000000000000004F
:10615000000000000000000000000000000000003F
:10616000000000000000000000000000000000002F
:10617000000000000000000000000000000000001F
:10618000000000000000000000000000000000000F
:1061900000000000000000000000000000000000FF
:1061A00000000000000000000000000000000000EF
:1061B00000000000000000000000000000000000DF
:1061C00000000000000000000000000000000000CF
:1061D00000000000000000000000000000000000BF
:1061E00000000000000000000000000000000000AF
:1061F000000000000000000000000000000000009F
:10620000364937480A1A02D0072291438D4635494C
:1062100035480A1A06D00722914381F309880222E1
:1062200082F3148831483249324A00F045F8324846
:106230003249334A00F040F832483349334A00F0DB
:106240003BF833483349344A00F036F83348344990
:10625000344A00F031F834483449354A00F02CF81B
:1062600034483549354A00F027F835483549002289
:1062700000F02DF834483549002200F028F8344861
:106280003449091A082903DB002202600430016046
:10629000314A90471F482049884205D0026804309F
:1062A00003B4904703BCF7E700208646EC46002085
:1062B00000212A4A9047FEE7884207D0521A05D0AB
:1062C000037801300B700131013AF9D170478842EF
:1062D00002D002700130FAE770470000000004208D
:1062E00000E003200000042000000420444B0500CF
:1062F0007436002010370020D8630200D8630200F3
:10630000FCA70400444B05007436002074360020BE
:10631000C8A90400C8A90400C8A90400C8A90400A9
:10632000C8A90400C8A90400C8A90400C8A9040099
:10633000444B0500E04B05001037002010370020CB
:106340001037002040640120406401204064012097
:106350004064012040840120A16302005D97030096
:10636000FEE7FEE7FEE7FEE7FEE7FEE7FEE7FEE705
:10637000FEE7FEE7704700BF1048804710484FF027
:106380000701884385460F4880470F48016841F45C
:1063900070010160BFF34F8FBFF36F8FFFF730BF06
:1063A0000A480B490B4A884207D0521A05D0037895
:1063B00001300B700131013AF9D170477563020069
:1063C00000000420950F030088ED00E0B4A904004C
:0863D000603600207436002045
:1063D80000B585B003468DF8073000238DF80F30DF
:1063E8000DF10F03184607F01FFB12F0CFFC034610
:1063F80083F00103DBB2002B0DD00DF10703194622
:1064080009480AF0EFFC08480AF0C8FC0346002BCC
:1064180001D000F007FB9DF80F30184607F01AFB73
:1064280000BF05B05DF804FB94A8040000B585B072
:10643800034600918DF807309DF80730002B02D0F5
:10644800032B09D02AE0174B1B78012B25D100F02C
:10645800E9FA00F0FDFA20E000238DF80B300DF189
:106468000B03184607F0E0FA0E4B1B78012B0ED1F0
:106478000D490E4800F07EFA0390039B002B04D0D0
:106488000B4940F2071015F095FF00F0B1FA9DF89E
:106498000B30184607F0DEFA00E000BF00BF05B079
:1064A8005DF804FB10370020D96302001137002083
:1064B800CCA9040000B589B001900091009B079316
:1064C800019B1B788DF80C30019B5B680493019B42
:1064D8001B7A8DF81430019BDB680693074A079BEB
:1064E80052F823300649079A51F8221003AA104699
:1064F800984700BF09B05DF804FB00BF643700206F
:106508006C37002000B589B001900091009B07937B
:10651800019B1B788DF80C30019B5B680493019BF1
:106528009B68DBB28DF81430019BDB680693074A41
:10653800079B52F823300649079A51F8221003AAFC
:106548001046984700BF09B05DF804FB6437002087
:106558006C37002030B58FB0039002910192039BF5
:106568001B780C932C490C9B019A41F82320029B21
:106578001A692A490C9B41F823200C9B012B07D14F
:10658800029B5B7F002B03D12549762015F012FF73
:10659800029B5B7F1946234A0C9B13440A461A70D8
:1065A800029B04AC1D460FCD0FC495E80F0084E88C
:1065B8000F000C9B089300230D93039B1B781A462E
:1065C800184B9B5C002B0DD0039B181D019B002BC7
:1065D80001D0154A00E0002204AB194601F038FC4E
:1065E8000D9014E0039B1B781A460E4B9B5C002B06
:1065F8000DD1039B03F10C00019B002B01D00B4A2A
:1066080000E0002204AB194600F0C2FD0D900D9B7E
:1066180018460FB030BD00BF643700206C3700202B
:1066280024AA040074370020BD6402000D6502002E
:1066380008B5064B1B68002B03D10549512015F0FE
:10664800B9FE024B1B68984700BF08BD7837002089
:1066580080AA040082B00190019B044A934201D1B0
:10666800034B00E00023184602B0704700200040AA
:106678007837002000B587B001900091019B002B6E
:1066880003D11C49772015F095FE0198FFF7E2FF2A
:106698000590059B002B25D000238DF8133000238F
:1066A8008DF80B300DF10B03184607F0BDF9059B6B
:1066B8001B79002B03D001238DF8133005E0059BCF
:1066C800009A1A60059B01221A719DF80B30184632
:1066D80007F0C0F99DF81330002B03D01123039362
:1066E800039B02E000230393039B184607B05DF861
:1066F80004FB00BF80AA040000B585B00190019B8F
:10670800002B03D10A499B2015F054FE0198FFF78E
:10671800A1FF0390039B002B05D0039B00221A6066
:10672800039B00221A7100BF05B05DF804FB00BF8F
:1067380080AA040082B003468DF807309DF8073020
:1067480003F01F0205499DF907305B09012000FA93
:1067580002F241F8232000BF02B0704700E100E0D8
:1067680082B003468DF807309DF8073003F01F020A
:1067780006499DF907305B09012000FA02F220332F
:1067880041F8232000BF02B0704700BF00E100E0DD
:1067980082B003468DF807309DF8073003F01F02DA
:1067A80006499DF907305B09012000FA02F26033BF
:1067B80041F8232000BF02B0704700BF00E100E0AD
:1067C80082B0034600918DF807309DF90730002B01
:1067D8000CDA009BDAB20C499DF8073003F00F037E
:1067E800043B5201D2B20B441A7609E0009BDAB29C
:1067F80006499DF907305201D2B20B4483F80023B1
:1068080000BF02B0704700BF00ED00E000E100E00B
:1068180000B583B003460A468DF8073013468DF855
:1068280006309DF80630012B03D99DF80630032B5E
:106838000BD99DF80630042B03D99DF80630072B99
:1068480003D908496B2015F0B5FD9DF806209DF980
:10685800073011461846FFF7B3FF00BF03B05DF8D5
:1068680004FB00BFDCAA040000B583B003468DF822
:1068780007309DF907301846FFF78AFF9DF9073062
:106888001846FFF757FF00BF03B05DF804FB00B5DB
:1068980083B003468DF807309DF907301846FFF797
:1068A8005FFF00BF03B05DF804FB000082B00190F9
:1068B800034A019BC2F8043300BF02B0704700BF0F
:1068C80000D0004082B00190034A019BC2F808330F
:1068D80000BF02B0704700BF00D0004082B003463E
:1068E8008DF807309DF8073003F1804303F55043D6
:1068F80001221A6000BF02B0704784B00346ADF8A9
:106908000630BDF8063003F1804303F550430022FA
:106918001A60BDF8063003F1804303F550431B6845
:106928000393039B00BF04B07047000082B001903E
:10693800054BD3F80022019BDB4303491340C1F800
:10694800003200BF02B0704700D00040024BD3F8BD
:106958000835DBB21846704700D00040044BD3F826
:106968000435034A43F00103C2F8043500BF7047F9
:1069780000D0004000B583B001900091019B002B2E
:1069880003D118493E2015F015FD009B002B03D1BB
:1069980014493F2015F00EFD134B1B78002B01D036
:1069A80085231BE0114A009B1360019B1B7803F0B1
:1069B8000103DBB2002B01D0FFF7D0FF0120FFF766
:1069C800B5FF019B5B7819460D20FFF721FF0D20CD
:1069D800FFF74AFF044B01221A700023184603B040
:1069E8005DF804FB30AB04008037002084370020BA
:1069F80008B50A4B1B78012B03D00949562015F01E
:106A0800D9FC4FF48070FFF778FF0120FFF74EFFA5
:106A18000020FFF763FF00BF08BD00BF80370020DC
:106A280030AB040008B5084B1B78012B03D007498D
:106A38005E2015F0BFFC0120FFF744FF0420FFF79C
:106A48004DFF00BF08BD00BF8037002030AB0400F9
:106A580008B50B4B1B78012B03D00A49652015F0AC
:106A6800A9FC0120FFF72EFF0420FFF737FF0D20B8
:106A7800FFF70DFF024B00221A7000BF08BD00BFD0
:106A88008037002030AB040000B583B04FF480702D
:106A9800FFF733FFFFF75AFF03468DF80730054B22
:106AA8001B689DF807201046984700BF03B05DF8A3
:106AB80004FB00BF8437002082B003468DF80730FE
:106AC8009DF8073003F01F0205499DF907305B095F
:106AD800012000FA02F241F8232000BF02B07047FB
:106AE80000E100E082B003468DF807309DF80730DA
:106AF80003F01F0206499DF907305B09012000FADF
:106B080002F2203341F8232000BF02B0704700BFD3
:106B180000E100E082B003468DF807309DF80730A9
:106B280003F01F0206499DF907305B09012000FAAE
:106B380002F2603341F8232000BF02B0704700BF63
:106B480000E100E082B0034600918DF807309DF91E
:106B58000730002B0CDA009BDAB20C499DF807309D
:106B680003F00F03043B5201D2B20B441A7609E03A
:106B7800009BDAB206499DF907305201D2B20B44A4
:106B880083F8002300BF02B0704700BF00ED00E0AB
:106B980000E100E082B00190019B1B0B5BB218463C
:106BA80002B0704700B583B003460A468DF8073037
:106BB80013468DF806309DF80630012B03D99DF851
:106BC8000630032B0BD99DF80630042B03D99DF80A
:106BD8000630072B03D908496B2015F0EBFB9DF80D
:106BE80006209DF9073011461846FFF7ABFF00BF96
:106BF80003B05DF804FB00BF88AB040000B583B0A8
:106C080003468DF807309DF907301846FFF782FFD5
:106C18009DF907301846FFF74FFF00BF03B05DF836
:106C280004FB00B583B003468DF807309DF90730A3
:106C38001846FFF757FF00BF03B05DF804FB84B0A8
:106C480001900B46ADF80230BDF80230019A1344AA
:106C580000221A60BDF80230019A13441B6803939E
:106C6800039B00BF04B0704782B001900B46ADF89B
:106C78000230BDF80230019A13441B68002B14BF80
:106C880001230023DBB2184602B0704782B001909E
:106C98000091019B009AC3F8042300BF02B070471B
:106CA80082B001900091019BD3F80423009B13400C
:106CB800002B14BF01230023DBB2184602B0704733
:106CC80082B001900091019B009AC3F8082300BF8D
:106CD80002B0704784B00190019BD3F880340393CD
:106CE800019B039AC3F88024039B184604B070479D
:106CF80082B00190019B0422C3F8002500BF02B0B6
:106D0800704782B00190019B0022C3F8002500BFA4
:106D180002B0704784B0039002910192039B019ADC
:106D2800C3F81425039B029AC3F80C2500BF04B0CE
:106D3800704700B583B001904FF0FF324FF0FF313C
:106D48000198FFF7E7FF00BF03B05DF804FB82B0CE
:106D58000190019BD3F80C35184602B0704782B0F9
:106D68000190019BD3F81435184602B0704782B0E1
:106D78000190019BD3F80835184602B0704782B0DD
:106D88000190019BD3F81035184602B0704784B0C3
:106D9800039002910192039B029AC3F80825039B72
:106DA800019AC3F8102500BF04B0704700B583B03E
:106DB80001904FF0FF324FF0FF310198FFF7E7FFE6
:106DC80000BF03B05DF804FB82B00190019BD3F8CB
:106DD8001835DBB2184602B0704782B001900B46F6
:106DE8008DF803309DF80320019BC3F81C2500BFD4
:106DF80002B0704782B001900B468DF803309DF8C1
:106E08000330019A134401221A6000BF02B0704790
:106E180082B001900B468DF8033013468DF802308E
:106E28009DF803209DF802301343DBB21A46019BFC
:106E3800C3F86C2500BF02B0704782B00190009182
:106E4800019B009AC3F8242500BF02B070470000D8
:106E580000B583B00190019B1B682F2B04D90B4907
:106E68004FF4E87015F0A6FA019B1B681F2B02D897
:106E78004FF0A04306E0019B1B6803F01F02019B33
:106E88001A60034B184603B05DF804FBD8AB040046
:106E98000003005000B585B00190084611461A4617
:106EA80003468DF803300B468DF8023013468DF8F3
:106EB800013001AB1846FFF7CBFF03909DF8032084
:106EC8009DF802305B001A439DF801309B001A437D
:106ED8009DF818301B0242EA03019DF81C301B0480
:106EE800019A1943039B02F5E07243F8221000BF90
:106EF80005B05DF804FB00B585B00390002301934D
:106F0800002300930023012201210398FFF7C2FF09
:106F180000BF05B05DF804FB00B585B003900B46D3
:106F28008DF80B309DF80B2000230193002300936C
:106F38001346002200210398FFF7ACFF00BF05B0FD
:106F48005DF804FB00B585B003900023019300238E
:106F580000930023012200210398FFF79BFF00BF45
:106F680005B05DF804FB00B585B0019001AB18468B
:106F7800FFF76EFF0390019B012202FA03F3194603
:106F8800039800F004F800BF05B05DF804FB82B078
:106F980001900091019B009AC3F8082500BF02B038
:106FA800704700B583B001900091009B1B68B3F156
:106FB800FF3F09D0009B1B681846FFF7D4FF009BD2
:106FC8001B681846FFF797FF009B5B68B3F1FF3F0C
:106FD80005D0009B5B6800211846FFF79DFF019BC9
:106FE8001A68009B9B6919461046FFF726FF019B0C
:106FF8001868009B597D009B1B7D1A46FFF708FF08
:10700800019B1868009B1968009B5B681A46FFF78C
:1070180081FE009B1B7D012B22D1009B9B68B3F155
:10702800FF3F05D0009B9B6800211846FFF774FFBF
:10703800009BDB68B3F1FF3F09D0009BDB68184673
:10704800FFF791FF009BDB681846FFF754FF019B91
:107058001868009BD968009B9B681A46FFF797FE43
:1070680000BF03B05DF804FB00B583B001900B4688
:107078008DF80330019B1B684FF48E711846FFF79B
:10708800DEFD019B1B684FF4A2711846FFF7D7FD80
:10709800019B1B680E491846FFF7F8FD019B1B680A
:1070A8001846FFF777FD03461A469DF80330194640
:1070B8001046FFF777FD019B1B681846FFF76AFD2E
:1070C80003461846FFF79AFD00BF03B05DF804FBBE
:1070D8008000020000B583B00190019B1B6808493D
:1070E8001846FFF7EDFD019B1B681846FFF752FD98
:1070F80003461846FFF795FD00BF03B05DF804FB93
:107108008402020000B587B00190019B1B681846F5
:10711800FFF71DFE0590019B1B681846FFF71FFE31
:107128000490019B1B681846FFF721FE0390019B02
:107138001B681846FFF723FE0290019B1B68184640
:10714800FFF7F7FD019B1B681846FFF72FFE059B0D
:10715800B3F1FF3F02D00598FFF7F4FE049BB3F1AB
:10716800FF3F02D00498FFF7EDFE029BB3F1FF3F0B
:1071780002D00298FFF7E6FE039BB3F1FF3F02D06F
:107188000398FFF7DFFE00BF07B05DF804FB0000BF
:1071980000B587B0039002910192029B002B03D1A6
:1071A8002D49AA2015F006F9039B1B791A462C23B2
:1071B80003FB02F3294A1344049300230593049B19
:1071C80093F82A30002B03D008230593059B3EE053
:1071D800039B1A68039B1B791946214B53F82130EE
:1071E80019461046FFF746FA0346002B03D0112331
:1071F8000593059B2BE002990398FFF7D2FE049BA9
:10720800019A5A60029B1A69049B1A60049B5B6886
:10721800002B05D0029B1B7F19460398FFF724FF1C
:10722800039B1B681846FFF763FD049B00229A61C5
:10723800049B0022DA61049B002283F82920049B26
:1072480000225A61049B012283F82A20059B1846D4
:1072580007B05DF804FB00BF30AC0400883700209D
:1072680088AC040000B585B00190019B1B791A46D3
:107278002C2303FB02F3114A13440393019B1B685D
:107288001846FFF73EFD039B5B68002B02D0019870
:10729800FFF720FF0198FFF735FF019B1B68184691
:1072A800FFF72AFA039B002283F82A20039B002277
:1072B8005A6000BF05B05DF804FB00BF88370020A6
:1072C80000B585B0019000914FF48E710198FFF7D9
:1072D800B6FC009B9A68009B1B6A13441B788DF8C8
:1072E8000F30009B1B6A5A1C009B1A629DF80F30D6
:1072F80019460198FFF771FD00BF05B05DF804FB62
:1073080000B583B00190009116E0009B93F82830F7
:10731800DBB2002B01D0002315E04FF48E710198E9
:10732800FFF7A2FC034683F00103DBB2002BECD18C
:1073380000990198FFF7C4FF009B1A6A009B5B69DC
:107348009A42EAD30123184603B05DF804FB000013
:1073580000B587B0039002910192039B1B791A46EE
:107368002C2303FB02F33C4A13440493049B93F835
:107378002A30012B04D0394940F2151015F01AF8BB
:10738800029B002B04D135494FF48B7015F012F88D
:10739800019B002B04D1314940F2171015F00AF86F
:1073A800039800F05DF80346002B03D011230593E2
:1073B800059B4CE0049B019A5A61049B029A9A60CF
:1073C800049B00221A62049B002283F828200023D1
:1073D8000593039B1B684FF48E711846FFF72FFC2B
:1073E800039B1B6808211846FFF704FD039B1B68D5
:1073F80004991846FFF764FF049B5B68002B25D1AE
:10740800039B1B6804991846FFF77AFF034683F02D
:107418000103DBB2002B02D00F23059313E000BF5A
:10742800039B1B684FF48E711846FFF71DFC03463B
:1074380083F00103DBB2002BF2D1039B1B680C2104
:107448001846FFF7D7FC049B00225A61059B184693
:1074580007B05DF804FB00BF8837002030AC04009B
:1074680082B00190019B1B791946074A2C2303FB24
:1074780001F3134414331B68002B14BF01230023AA
:10748800DBB2184602B070478837002010B582B0CA
:1074980001900091009B9B69002B08D14FF48471E7
:1074A8000198FFF7CCFB0198FFF78EFC13E04FF42F
:1074B80084710198FFF7C3FB009BDA68009B5B6A45
:1074C800D4180198FFF780FC03462370009B5B6A81
:1074D8005A1C009B5A6202B010BD00B589B00390D7
:1074E8000291019201238DF81030029B0693019BB3
:1074F8000593039B5B68039A116804AA1046984792
:1075080000BF09B05DF804FB00B587B00190009199
:1075180000238DF80830009B0493019B9B6803931C
:10752800019B00225A61019B5B68019A116802AABB
:107538001046984700BF07B05DF804FB00B589B056
:10754800019000914FF400710198FFF7A9FB0346E1
:10755800002B39D04FF492710198FFF785FB034651
:10756800002B31D04FF492710198FFF768FB4FF46C
:1075780001710198FFF7A4FB009B93F8293083F071
:107588000103DBB2002B03D004210198FFF732FC82
:1075980002238DF808300198FFF79CFB03460593FA
:1075A800009B9B690493009BDB680393009B00226C
:1075B8009A61009B0022DA61009B5B68009A11685F
:1075C80002AA1046984752E004210198FFF768FB89
:1075D8000346002B4BD04FF484710198FFF744FB0E
:1075E8000346002B43D000990198FFF74FFF009BFB
:1075F8009A69009B5B6A9A4239D1009BDB69002B30
:1076080019D0009BDB680793009B5B6A0693009B7D
:10761800DA69009B9A61009B1A69009BDA60009BFB
:107628000022DA61009B00225A62079A06990098A4
:10763800FFF753FF1BE0009B93F8293083F0010309
:10764800DBB2002B03D004210198FFF7D3FB4FF4E2
:1076580001710198FFF734FB009B00229A61009B9F
:10766800596A009BDB681A460098FFF736FF4FF40B
:107678008E710198FFF7F8FA0346002B22D0009B81
:107688001A6A009B5B699A420DD2009B93F82830D6
:10769800DBB283F00103DBB2002B04D00099019820
:1076A800FFF70EFE0EE04FF48E710198FFF7C7FA50
:1076B800009B5B69002B05D0009B5B69194600980D
:1076C800FFF722FF4FF4A2710198FFF7CDFA0346A6
:1076D800002B1CD04FF4A2710198FFF7B0FA009B61
:1076E80093F82930002B03D000210198FFF782FB83
:1076F800009B9B69002B0AD0009B00229A61009B8B
:10770800596A009BDB681A460098FFF7E6FE00BF3F
:1077180009B05DF804FB000008B503490348FFF70A
:107728000DFF00BF08BD00BF8837002000200040C3
:1077380082B003468DF807309DF8073003F01F022A
:1077480005499DF907305B09012000FA02F241F86A
:10775800232000BF02B0704700E100E082B003467A
:107768008DF807309DF8073003F01F0206499DF990
:1077780007305B09012000FA02F2203341F8232088
:1077880000BF02B0704700BF00E100E082B00346CE
:107798008DF807309DF8073003F01F0206499DF960
:1077A80007305B09012000FA02F2603341F8232018
:1077B80000BF02B0704700BF00E100E082B003469E
:1077C80000918DF807309DF90730002B0CDA009BEB
:1077D800DAB20C499DF8073003F00F03043B52015D
:1077E800D2B20B441A7609E0009BDAB206499DF939
:1077F80007305201D2B20B4483F8002300BF02B015
:10780800704700BF00ED00E000E100E082B00190A9
:10781800019B03F06043B3F1005F0CBF0123002319
:10782800DBB2184602B0704782B00190019B1B0B77
:107838005BB2184602B0704700B583B003460A46EB
:107848008DF8073013468DF806309DF80630012B69
:1078580003D99DF80630032B0BD99DF80630042B6D
:1078680003D99DF80630072B03D908496B2014F07B
:10787800A1FD9DF806209DF9073011461846FFF72F
:107888009DFF00BF03B05DF804FB00BF8CAC040093
:1078980000B583B003468DF807309DF907301846C8
:1078A800FFF774FF9DF907301846FFF741FF00BF47
:1078B80003B05DF804FB00B583B003468DF80730CC
:1078C8009DF907301846FFF749FF00BF03B05DF880
:1078D80004FB84B001900B46ADF80230BDF80230CD
:1078E800019A134400221A60BDF80230019A134429
:1078F8001B680393039B00BF04B0704782B00190DC
:107908000B46ADF80230BDF80230019A13441B68EB
:10791800002B14BF01230023DBB2184602B07047C6
:1079280082B001900091019BD3F80022009BDB43B9
:107938001A40019BC3F8002200BF02B0704782B012
:1079480001900091019B009AC3F8042300BF02B084
:10795800704782B001900091019B009AC3F80823F8
:1079680000BF02B0704784B00190019BD3F8803407
:107978000393019B039AC3F88024039B184604B021
:10798800704782B00190019B0822C3F8002500BF10
:1079980002B0704782B00190019B0022C3F8002515
:1079A80000BF02B0704784B0039002910192039B1C
:1079B800029AC3F80C25039B019AC3F8142500BF4B
:1079C80004B0704700B583B001904FF0FF324FF01C
:1079D800FF310198FFF7E7FF00BF03B05DF804FB34
:1079E80082B00190019BD3F80C35184602B070475D
:1079F80082B00190019BD3F81435184602B0704745
:107A080082B00190019BD3F80835184602B0704740
:107A180082B00190019BD3F81035184602B0704728
:107A280084B0039002910192039B029AC3F808253F
:107A3800039B019AC3F8102500BF04B0704700B536
:107A480083B001904FF0FF324FF0FF310198FFF7FC
:107A5800E7FF00BF03B05DF804FB82B001900B465E
:107A68008DF803309DF80330019A134401221A60FF
:107A780000BF02B0704782B001900B468DF803300A
:107A880013468DF802309DF803209DF80230134309
:107A9800DBB21A46019BC3F86C2500BF02B07047E1
:107AA80082B001900091019B009AC3F8242500BF81
:107AB80002B0704784B0039002910192029A039B2E
:107AC800C3F84425039B019AC3F8482500BF04B0B6
:107AD800704782B00190019BD3F84C35184602B02C
:107AE800704782B00190019BD3F83C35184602B02C
:107AF8007047000000B583B00190019B1B682F2BD5
:107B080004D90B494FF4E87014F054FC019B1B682E
:107B18001F2B02D84FF0A04306E0019B1B6803F01F
:107B28001F02019B1A60034B184603B05DF804FB63
:107B3800DCAC04000003005000B585B00190084695
:107B480011461A4603468DF803300B468DF802306D
:107B580013468DF8013001AB1846FFF7CBFF0390B1
:107B68009DF803209DF802305B001A439DF8013010
:107B78009B001A439DF818301B0242EA03019DF846
:107B88001C301B04019A1943039B02F5E07243F869
:107B9800221000BF05B05DF804FB00B585B0039066
:107BA800002301930023009300230122012103985D
:107BB800FFF7C2FF00BF05B05DF804FB00B585B054
:107BC80003900B468DF80B309DF80B200023019392
:107BD800002300931346002200210398FFF7ACFF0F
:107BE80000BF05B05DF804FB00B585B00390002325
:107BF8000193002300930023012200210398FFF73B
:107C08009BFF00BF05B05DF804FB00B585B001908F
:107C180001AB1846FFF76EFF0390019B012202FAA1
:107C280003F31946039800F004F800BF05B05DF8A7
:107C380004FB82B001900091019B009AC3F80825CB
:107C480000BF02B0704700B583B001900091009B5F
:107C58001B68B3F1FF3F09D0009B1B681846FFF76C
:107C6800D4FF009B1B681846FFF797FF009B5B68D3
:107C7800B3F1FF3F05D0009B5B6800211846FFF772
:107C88009DFF019B1A68009B9B6919461046FFF7E8
:107C980007FF019B1868009B597D009B1B7D1A46B6
:107CA800FFF7E9FE019B1868009B1968009B5B6859
:107CB8001A46FFF778FE009B1B7D012B22D1009B03
:107CC8009B68B3F1FF3F05D0009B9B6800211846D5
:107CD800FFF774FF009BDB68B3F1FF3F09D0009BFF
:107CE800DB681846FFF791FF009BDB681846FFF733
:107CF80054FF019B1868009BD968009B9B681A4633
:107D0800FFF78EFE00BF03B05DF804FB00B583B03B
:107D180001900B468DF80330019B1B684FF4887166
:107D28001846FFF7D6FD019B1B684FF49071184663
:107D3800FFF7CFFD019B1B684FF492711846FFF7C0
:107D4800C8FD019B1B684FF4A2711846FFF7C1FDDF
:107D5800019B1B680E491846FFF7F1FD019B1B6844
:107D68001846FFF761FD03461A469DF80330194689
:107D78001046FFF761FD019B1B681846FFF754FD8D
:107D880003461846FFF784FD00BF03B05DF804FB07
:107D98001003020000B583B00190019B1B680849DD
:107DA8001846FFF7D6FD019B1B681846FFF73CFDF8
:107DB80003461846FFF77FFD00BF03B05DF804FBDC
:107DC8001003020000B587B00190019B1B6818469C
:107DD800FFF706FE0590019B1B681846FFF708FE93
:107DE8000490019B1B681846FFF70AFE0390019B4D
:107DF8001B681846FFF70CFE0290019B1B6818468B
:107E0800FFF7E0FD019B1B681846FFF718FE059B6E
:107E1800B3F1FF3F02D00598FFF7E6FE049BB3F1EC
:107E2800FF3F02D00498FFF7DFFE029BB3F1FF3F4C
:107E380002D00298FFF7D8FE039BB3F1FF3F02D0B0
:107E48000398FFF7D1FE00BF07B05DF804FB000000
:107E580000B587B0039002910192029B002B03D1D9
:107E68002B49BC2014F0A6FA039B1B791A4613462B
:107E7800DB0013449B00274A134404930023059313
:107E8800049B93F82030002B03D008230593059B0F
:107E98003AE0039B1A68039B1B7919461E4B53F85B
:107EA800213019461046FEF7E5FB0346002B03D0A8
:107EB80011230593059B27E002990398FFF7C3FE5A
:107EC800049B019A5A60029B1A69049B1A60049BDE
:107ED8005B68002B05D0029B1B7F19460398FFF7B0
:107EE80015FF039B1B681846FFF74BFD049B0022F8
:107EF8009A61049B0022DA61049B00225A61049B68
:107F0800012283F82020059B184607B05DF804FB82
:107F180034AD0400B43700208CAD040000B585B042
:107F28000190019B1B791A461346DB0013449B0002
:107F3800104A13440393019B1B681846FFF72AFD58
:107F4800039B5B68002B02D00198FFF723FF019881
:107F5800FFF738FF019B1B681846FEF7CDFB039B14
:107F6800002283F82020039B00225A6000BF05B03E
:107F78005DF804FBB437002000B589B00390029186
:107F88000192039B1B791A461346DB0013449B009E
:107F98004C4A13440493049B93F82030012B04D0DB
:107FA800494940F20D1014F005FA029B002B04D148
:107FB80045494FF4877014F0FDF9019B002B04D15B
:107FC800414940F20F1014F0F5F9039B1B79002B7F
:107FD80003D1019BB3F5803F04D33B494FF488702C
:107FE80014F0E8F90298FFF711FC034683F0010347
:107FF800DBB2002B03D010230693069B5EE00398A8
:1080080000F064F80346002B03D011230693069B67
:1080180054E0049B019A5A61049B029A9A600023D7
:108028000693039B1B684FF490711846FFF751FCA9
:10803800039B1B684FF4AC711846FFF74AFC039B7F
:108048001868049B9968049B5B691A46FFF732FD20
:10805800039B1B6808211846FFF7FFFC049B5B681D
:10806800002B2AD1039B1B684FF490711846FFF729
:1080780045FC03468DF81730039B1B684FF4AC7121
:108088001846FFF73BFC03468DF81F309DF8173064
:1080980083F00103DBB2002B06D09DF81F3083F07C
:1080A8000103DBB2002BDDD19DF81F30002B01D07E
:1080B8000F230693049B00225A61069B184609B0B9
:1080C8005DF804FBB437002034AD040082B00190A1
:1080D800019B1B791946084A0B46DB000B449B00A1
:1080E800134414331B68002B14BF01230023DBB295
:1080F800184602B0704700BFB437002000B589B0F9
:1081080003900291019201238DF81030029BDBB29B
:108118008DF81830019B0593039B5B68039A1168DF
:1081280004AA1046984700BF09B05DF804FB00B5E3
:1081380087B00190009100238DF80830009BDBB2D6
:108148008DF81030019B9B680393019B00225A61B4
:10815800019B5B68019A116802AA1046984700BF04
:1081680007B05DF804FB00B589B0019000914FF4A9
:1081780092710198FFF7C2FB0346002B24D04FF4FD
:1081880092710198FFF7A5FB02238DF8083001983A
:10819800FFF7E9FB034605930198FFF7A2FC0346A6
:1081A800DBB28DF81030009BDB680393009B002244
:1081B8009A61009B0022DA61009B5B68009A116853
:1081C80002AA104698473BE04FF488710198FFF7E0
:1081D80095FB0346002B33D04FF488710198FFF7C5
:1081E80078FB0198FFF77DFC0790009B9B69079A35
:1081F8009A4225D1009BDB69002B17D0009BDB68D6
:10820800069320210198FFF78BFB009BDA69009BFE
:108218009A61009B1A69009BDA60009B0022DA6170
:10822800069A07990098FFF769FF09E0009B00226A
:108238009A61009BDB681A4607990098FFF75EFF72
:108248004FF4A2710198FFF759FB0346002B15D094
:108258004FF4A2710198FFF73CFB009B9B69002B30
:108268000CD0009B00229A610198FFF73AFC014666
:10827800009BDB681A460098FFF740FF4FF49071A7
:108288000198FFF73BFB0346002B10D04FF4907189
:108298000198FFF71EFB009B5B69002B07D0019834
:1082A800FFF717FC034619460098FFF740FF00BF89
:1082B80009B05DF804FB000008B503490348FFF75F
:1082C80052FF00BF08BD00BFB437002000200040A7
:1082D80082B003468DF807309DF8073003F01F027F
:1082E80006499DF907305B09012000FA02F22033A4
:1082F80041F8232000BF02B0704700BF00E100E052
:1083080008B510F043FD034683F00103DBB2002BF0
:1083180003D10549792014F04DF800F087FA034B92
:1083280000229A7000BF08BD98AD0400D83700201D
:1083380000B583B000230193144B1B78002B02D0A7
:10834800852301931CE0114B00229A600F4B0022F9
:108358005A600E4B00221A610C4B0022DA600C485E
:1083680000F02AFA019010F011FD034683F0010392
:10837800DBB2002B01D000F045FA044B01221A7041
:10838800019B184603B05DF804FB00BFD8370020F6
:108398007184020084B00190019B1B680393039BC6
:1083A800002B03D0039B1A68019B1A60039B184695
:1083B80004B0704700B583B0164B1B78002B04D16E
:1083C80015494FF4857013F0F5FF124BDB68002B4D
:1083D80004D1114940F20B1013F0ECFF00238DF883
:1083E80007300DF10703184605F01EFB094BDB6843
:1083F800013B084AD360074BDB68002B01D1FFF72C
:108408007FFF9DF80730184605F024FB00BF03B036
:108418005DF804FBD837002098AD040000B585B09E
:1084280003468DF807309DF80730002B02D10C4B1E
:10843800039301E00B4B03930398FFF7ABFF029004
:10844800029B002B06D0029B5B689DF80720104614
:108458009847F1E700BF00BF05B05DF804FB00BF17
:10846800E0370020E837002000B583B003468DF8D8
:1084780007309DF80730002B05D10A4B01225A70AE
:108488000020FFF7CBFF9DF80730012B05D1054BE6
:1084980001229A700120FFF7C1FF00BF03B05DF809
:1084A80004FB00BFD837002000B583B001900091CD
:1084B800019B002B05D1054B01225A700020FFF7C4
:1084C800ADFF00BF03B05DF804FB00BFD837002044
:1084D80000B585B0034600918DF807309DF8073048
:1084E800012B08D0032B25D0002B00D030E0002032
:1084F800FFF7EEFE2CE000238DF80F300DF10F038F
:10850800184605F091FA144B1B7883F00103DBB28F
:10851800002B01D0FFF70CFF0F4BDB6801330E4A2D
:10852800D3600D4B01229A709DF80F30184605F064
:1085380091FA0DE0084B1B78002B04D1074940F253
:10854800452013F037FF00F05DF9FFF733FF00BF58
:1085580000BF05B05DF804FBD837002098AD0400D3
:1085680082B003468DF807309DF8073003F01F02EC
:1085780005499DF907305B09012000FA02F241F82C
:10858800232000BF02B0704700E100E082B003463C
:108598008DF807309DF8073003F01F0206499DF952
:1085A80007305B09012000FA02F2603341F823200A
:1085B80000BF02B0704700BF00E100E082B0034690
:1085C80000918DF807309DF90730002B0CDA009BDD
:1085D800DAB20C499DF8073003F00F03043B52014F
:1085E800D2B20B441A7609E0009BDAB206499DF92B
:1085F80007305201D2B20B4483F8002300BF02B007
:10860800704700BF00ED00E000E100E000B583B076
:1086180003460A468DF8073013468DF806309DF854
:108628000630012B03D99DF80630032B0BD99DF892
:108638000630042B03D99DF80630072B03D90849C7
:108648006B2013F0B7FE9DF806209DF90730114600
:108658001846FFF7B3FF00BF03B05DF804FB00BF87
:10866800F4AD040000B583B003468DF807309DF9DA
:1086780007301846FFF78AFF9DF907301846FFF7BD
:108688006FFF00BF03B05DF804FB000082B0034633
:108698008DF807300F4A9DF90730002B00DA1F3399
:1086A8005B115BB252F823209DF90730594203F061
:1086B8001F0301F01F0158BF4B425BB222FA03F3BC
:1086C80003F00103002B14BF01230023DBB218467B
:1086D80002B0704700E100E082B001904FF08042A4
:1086E800019BC2F8083300BF02B0704782B003464E
:1086F8008DF807309DF8073003F1804301221A6096
:1087080000BF02B0704784B00346ADF80630BDF82C
:10871800063003F1804300221A60BDF8063003F1E9
:1087280080431B680393039B00BF04B0704782B06B
:108738000346ADF80630BDF8063003F180431B68E8
:10874800002B14BF01230023DBB2184602B0704788
:1087580082B001904FF08042019BC2F8183500BFEB
:1087680002B070474FF08043D3F818341B0C03F065
:108778000103002B14BF01230023DBB21846704706
:1087880000B583B006238DF807300020FFF77EFF81
:10879800034683F00103DBB2002B08D09DF80730B5
:1087A80019460020FFF732FF0020FFF75BFF00BFEC
:1087B80003B05DF804FB000000B585B00190019B93
:1087C800002B03D10D49A22013F0F4FD00230393DD
:1087D8000B4B1B79002B02D08523039308E0084A32
:1087E800019B1360064B01221A71054B00225A7136
:1087F800039B184605B05DF804FB00BF4CAE0400AF
:10880800EC37002008B5074B1B79002B03D106492C
:10881800BB2013F0CFFDFFF7B3FF0120FFF798FF50
:1088280000BF08BDEC3700204CAE040008B5094B6A
:108838001B79002B03D10849F22013F0BBFD0C2053
:10884800FFF754FF00BFFFF78DFF0346002BFAD157
:1088580000BF08BDEC3700204CAE040008B54FF44B
:108868008070FFF764FF0346002B14D04FF480702C
:10887800FFF749FF0120FFF72FFF114B5B7983F0CA
:108888000103DBB2002B06D00D4B01225A710C4BB1
:108898001B68002098474FF48270FFF748FF034693
:1088A800002B0AD04FF48270FFF72DFF0220FFF74C
:1088B80013FF034B1B680120984700BF08BD00BF8A
:1088C800EC37002000B583B00346ADF80630BDF89C
:1088D8000630184600F026F803461B68012B0CBF2B
:1088E80001230023DBB2184603B05DF804FB00B592
:1088F80085B00346ADF80630BDF80630184600F0DE
:1089080011F803461A4600231360BDF806301846CE
:1089180000F008F803461B680393039B00BF05B0EB
:108928005DF804FB82B00346ADF80630BDF80630AA
:1089380003F1804303F5C043184602B070470000B6
:1089480082B00190034BD3F80423019B13401846CF
:1089580002B070470060004082B00190054A019B58
:1089680003F5A27352F823301B0A03F03F0318469D
:1089780002B070470060004082B00190064A019B37
:1089880003F5A27352F823301B0C03F00303DBB288
:10899800184602B0704700BF0060004000B583B0C1
:1089A8000190019B1B682F2B04D90B494FF4E870E9
:1089B80013F000FD019B1B681F2B02D84FF0A0434A
:1089C80006E0019B1B6803F01F02019B1A60034B22
:1089D800184603B05DF804FBF4AE04000003005031
:1089E80000B585B001900B468DF8033001AB1846F1
:1089F800FFF7D4FF0390019A039B02F5E07253F846
:108A08002230019A23F44031039B02F5E07243F8C7
:108A18002210019A039B02F5E07253F822309DF868
:108A2800032012041146019A1943039B02F5E072D0
:108A380043F8221000BF05B05DF804FB00B585B00F
:108A4800019001AB1846FFF7A9FF0390019A039B19
:108A580002F5E07253F822301B0C03F00303DBB27B
:108A6800184605B05DF804FB82B00190019BD3F86D
:108A78001035184602B0704700B589B003900291CE
:108A88000192174A05AB92E8030083E80300039AB2
:108A9800029B1344022B04D9124940F2F12013F02F
:108AA80089FC039B079311E0079B9B0008AA1344CA
:108AB80053F80C3C1846FFF7D7FF0246019B1A6093
:108AC800019B04330193079B01330793039A029B8D
:108AD8001344079A9A42E7D300BF09B05DF804FB34
:108AE80044AF0400F4AE040084B001900091009BF0
:108AF8000393019BDB080293019B03F00703019397
:108B08000122019B02FA03F30399029A0A4412789C
:108B18001340184604B0704784B001900091009B40
:108B28000393019BDB080293019B03F00703019366
:108B3800039A029B13441B785AB20121019B01FA44
:108B480003F35BB2134359B2039A029B1344CAB2AC
:108B58001A7000BF04B0704782B00190044A019BAC
:108B68001344303393F90030184602B0704700BF01
:108B7800F437002082B00190034A019B52F8233059
:108B8800184602B0704700BFF437002000B599B00E
:108B98000023149306AB00221A605A604FF48073C6
:108BA800ADF84A30012316930023139321E0BDF852
:108BB8004A301846FFF786FE0346002B0ED016985B
:108BC800FFF7BEFE0346002B08D0BDF84A30184612
:108BD800FFF78DFE149A169B13431493169B5B00A4
:108BE8001693BDF84A300433ADF84A30139B01336D
:108BF8001393139B072BDAD94FF4BE70FFF762FE6D
:108C08000346002B0DD04FF4BE70FFF770FE149B87
:108C180043F00043149306AB1A4602210020FFF7E5
:108C28002BFF149BDBB2002B29D0012316930023C2
:108C3800139321E0169A149B1340002B16D0139817
:108C4800FFF78AFE11901398FFF796FE03468DF8FA
:108C580043301398FFF78EFF0F900F9B002B05D022
:108C68009DF843200F9B114611989847169B5B006F
:108C78001693139B01331393139B072BDAD9149B79
:108C8800002B80F2F08000238DF85F3004AB0022C7
:108C98001A605A60002315930AE0159B9B0018AAD6
:108CA80013444FF0FF3243F8582C159B01331593AA
:108CB800159B012BF1D900238DF85F300023139306
:108CC80078E06B4A139B1344603393F900308DF8B6
:108CD8003B309DF83B3023F0C0030D93644A139B4F
:108CE8001344603393F90030B3F1FF3F5FD002AB18
:108CF80019460D98FFF7F8FE0346002B57D09DF84C
:108D08003B309B098DF833300D98FFF725FF03465C
:108D18001846FFF72FFF0B900B9B002B03D19DF8F4
:108D28003330032B43D19DF83330032B04D104ABEC
:108D380019460D98FFF7F0FE0D98FFF77FFE0346E2
:108D48008DF82B3006AB19460D98FFF7CDFE09902C
:108D5800099B002B03D09DF82B30022B06D0099BD2
:108D6800002B24D19DF82B30032B20D19DF83330D4
:108D7800032B13D19DF82B30022B01D1032300E0E4
:108D880002238DF823309DF8233019460D98FFF7FC
:108D980027FE9DF85F3001338DF85F300B9B002B69
:108DA80005D09DF833200B9B11460D989847139BCF
:108DB80001331393139B032B83D99DF85F30002B4A
:108DC8004CD001238DF85E306B461A4602210020F4
:108DD800FFF752FE0023159314E0159B9B0018AA79
:108DE800134453F8602C159B9B0018A90B4453F8A7
:108DF800483C9A4203D000238DF85E3005E0159B6D
:108E080001331593159B012BE7D99DF85E30002B94
:108E180003D000238DF85F3020E0002315931AE07B
:108E2800159B9B0018AA134453F8602C159B9B00B4
:108E380018A90B4443F8482C159B9B0018AA134407
:108E480053F8502C159B9B0018A90B4443F8582C39
:108E5800159B01331593159B012BE1D99DF85F30C4
:108E6800002B7FF428AF00BF19B05DF804FB00BFEA
:108E7800F437002082B00190019B002B02D148F208
:108E8800015308E0019B1B68044A934202D048F250
:108E9800025300E00023184602B07047634145536F
:108EA80000B587B00390029113468DF80730039BF5
:108EB80005930598FFF7DEFF0490049B002B06D06E
:108EC800049B48F20252934201D0049B17E0029B94
:108ED800002B02D148F2105311E0059B029A5A6008
:108EE800029B9B689DF807201146039898470490B9
:108EF800049B002B02D1059B034A1A60049B184669
:108F080007B05DF804FB00BF6341455300B587B067
:108F18000190019B04930498FFF7ACFF0590059B13
:108F280048F20252934206D1049B1B680C4A9342B2
:108F380001D100230593059B0393039B002B01D0CC
:108F4800039B09E0049B5B68DB68019898470590E0
:108F5800049B00221A60059B184607B05DF804FBC5
:108F68005345416300B587B001900091019B05937B
:108F78000598FFF77FFF0490049B0393039B002B46
:108F880001D0039B0DE0009B002B02D148F2105347
:108F980007E0059B5B681B69009901989847049056
:108FA800049B184607B05DF804FB00B587B0019034
:108FB8000091019B05930598FFF75CFF0490049BC3
:108FC8000393039B002B01D0039B15E0059B5B6873
:108FD8005B69002B02D148F203530DE0009B002B84
:108FE80002D148F2105307E0059B5B685B69009962
:108FF800019898470490049B184607B05DF804FB55
:1090080010B58AB00590049103920293059B0993C9
:109018000998FFF72FFF0890089B0793079B002BE1
:1090280001D0079B2CE0049B002B02D148F210537F
:1090380026E0029B002B02D148F2135320E00C9B40
:10904800002B02D148F213531AE0099B5B681C6A93
:109058000C9B0093029B039A04990598A0470890DB
:10906800089B002B01D0089B0AE00598FFF74EFFEC
:109078000890089B002B02D1099B034A1A60089BA1
:1090880018460AB010BD00BF5345416382B0019035
:109098000091019B002B02D148F210530CE0009B79
:1090A800002B02D148F2135306E0009B00221A60FD
:1090B800009B019A5A600023184602B0704782B09C
:1090C80001900091019B002B02D148F2105308E057
:1090D800019B1B68009A9A4202D048F2405300E074
:1090E8000023184602B0704784B0039002910192A1
:1090F800039B002B02D148F213530EE0029B002B76
:109108000AD0029B1B68019A9A4202D948F214536A
:1091180003E0029B019A1A600023184604B07047C6
:1091280084B0039002910192039B002B02D148F274
:10913800105307E0029A019B9A4202D048F2115359
:1091480000E00023184604B07047000080B58CB0DA
:1091580000AFF860B9607A603B600023FB627B680F
:10916800BB623B687B62B96AB868FFF78FFF3862F9
:109178003B6AFB61FB69002B01D0FB6949E0796A16
:10918800B868FFF783FF38623B6ABB61BB69002B95
:1091980001D0BB693DE0BB681B791A461F4B53F8E9
:1091A80022307B61BB681B791A461D4B33F812309D
:1091B8003B617B69002B02D148F2035329E0FB682D
:1091C800002B16D13B69002B13D03B6907330733BB
:1091D800DB08DB00ADEB030D6B460733DB08DB0078
:1091E800FB62FB6A002B02D148F2155311E0FB6ABF
:1091F800FB607B693A687968F868984738623B6A27
:10920800002B05D1BB6A074A1A607B6A064A1A60B6
:109218003B6A18463037BD4680BD00BFACAF04007E
:10922800E0AF04007652464D7052464D00B58BB003
:109238000390029101920093029B09930999039864
:10924800FFF724FF0890089B0793079B002B01D08A
:10925800079B27E0039B5B791A4600990198FFF763
:109268005FFF0890089B0693069B002B01D0069B86
:1092780018E0039B1B791A460C4B53F822300593D0
:10928800059B002B02D148F203530BE0059B019983
:10929800029898470890089B002B02D1099B044A22
:1092A8001A60089B18460BB05DF804FBFCAF04007D
:1092B8007652464D00B58BB0039002910192039B04
:1092C80009931A490998FFF7FAFE0890089B079333
:1092D800079B002B01D0079B24E0099B5B68069342
:1092E800069B5B791A4601990298FFF7FDFE0890E4
:1092F800089B0593059B002B01D0059B12E0069B5C
:109308001B791A460A4B53F822300493049B002B0E
:1093180002D148F2035305E0049B02990398984749
:109328000890089B18460BB05DF804FB7652464D32
:1093380030B0040000B58BB0039002910192009305
:10934800029B099309990398FFF7A0FE0890089BD0
:109358000793079B002B01D0079B27E0039B9B7972
:109368001A4600990198FFF7DBFE0890089B0693C0
:10937800069B002B01D0069B18E0039B1B791A461D
:109388000C4B53F822300593059B002B02D148F271
:1093980003530BE0059B0199029898470890089B96
:1093A800002B02D1099B044A1A60089B18460BB08F
:1093B8005DF804FB64B004007052464D00B58BB0F4
:1093C800039002910192039B09931A490998FFF7A8
:1093D80076FE0890089B0793079B002B01D0079BFC
:1093E80024E0099B5B680693069B9B791A460199C2
:1093F8000298FFF779FE0890089B0593059B002BC0
:1094080001D0059B12E0069B1B791A460A4B53F8BC
:1094180022300493049B002B02D148F2035305E049
:10942800049B0299039898470890089B18460BB02C
:109438005DF804FB7052464D98B0040000B589B041
:109448000190019B069314490698FFF738FE079090
:10945800079B0593059B002B01D0059B17E0069BF6
:109468005B680493049B1B791A460C4B53F8223013
:109478000393039B002B04D0039B01989847079004
:1094880001E000230793069B00221A60079B1846F9
:1094980009B05DF804FB00BF7652464DCCB004001D
:1094A80000B589B00190019B069314490698FFF70F
:1094B80006FE0790079B0593059B002B01D0059B93
:1094C80017E0069B5B680493049B1B791A460C4BB8
:1094D80053F822300393039B002B04D0039B01987D
:1094E8009847079001E000230793069B00221A6023
:1094F800079B184609B05DF804FB00BF7052464D43
:1095080000B1040090B58FB000AFF860B9607A6020
:109518003B6000237B63BB683B637B68FB62364927
:10952800386BFFF7CCFDB862BB6A7B627B6A002BA5
:1095380001D07B6A5CE03149F86AFFF7C0FDB86288
:10954800BB6A3B623B6A002B01D03B6A50E03B6B35
:109558005A68FB6A5B689A4202D048F2415347E076
:109568003B6B5B68FB61FB695B791A46B96C3868D1
:10957800FFF7BAFDB862BB6ABB61BB69002B01D0BB
:10958800BB6935E0FB691B791A461D4B53F822303D
:109598007B61FB691B791A461A4B33F812303B6121
:1095A8007B69002B02D148F2035321E0FB68002BB2
:1095B80016D13B69002B13D03B6907330733DB080F
:1095C800DB00ADEB030D6B460733DB08DB007B6389
:1095D8007B6B002B02D148F2155309E07B6BFB60D3
:1095E8007C693B687A68B968F868A047B862BB6A62
:1095F80018463C37BD4690BD7652464D7052464D92
:1096080034B1040064B1040082B00190019B002BC6
:1096180002D148F2015308E0019B1B68044A9342B7
:1096280002D048F2025300E00023184602B0704707
:109638006E52464800B585B001900091019B002B01
:1096480002D148F2015318E0009B002B02D148F2E6
:10965800105312E0019B0393039B009A5A60009BEE
:109668001B68019898470290029B002B01D0029B2F
:1096780003E0039B034A1A600023184605B05DF80F
:1096880004FB00BF6E52464800B587B003900291B4
:109698000192039B05930598FFF7B6FF0490049B7E
:1096A800002B01D0049B13E0029B002B02D148F24F
:1096B80010530DE0019B002B01D1002308E0059B0E
:1096C8005B685B68019A0299039898470490049B29
:1096D800184607B05DF804FB00B587B00390029107
:1096E8000192039B05930598FFF78EFF0490049B56
:1096F800002B01D0049B18E0029B002B02D148F2FA
:10970800135312E0019B1A68059B5B68DB689A4259
:1097180002D248F2145308E0059B5B689B68019AE3
:109728000299039898470490049B184607B05DF87F
:1097380004FB00B589B00390029101920093039B4A
:1097480007930023069302990798FFF773FF059084
:10975800059B002B01D0059B16E0009A01990798FC
:10976800FFF792FF0590059B002B01D0059B0BE0AE
:109778000B9A0A990798FFF7AFFF0590059B002BF6
:1097880001D0059B00E00023184609B05DF804FBF2
:1097980082B00190019B002B02D148F2015308E0EE
:1097A800019B1B68044A934202D048F2025300E02E
:1097B8000023184602B0704711BADEBA00B587B068
:1097C8000390029101920093039B059300F0C4F863
:1097D800034683F00103DBB2002B02D04FF40543AC
:1097E80029E0059B002B02D148F2015323E0029B9C
:1097F800002B02D148F210531DE0019B002B02D12F
:1098080048F2105317E0009B002B02D148F2115385
:1098180011E0059B029A5A60059B5B681B68009AD9
:109828000199039898470490049B002B02D1059B4B
:10983800034A1A60049B184607B05DF804FB00BF92
:1098480011BADEBA00B589B0039002910192039B68
:1098580007930798FFF79CFF0690069B0593059BC7
:10986800002B01D0059B14E0029B002B02D148F28B
:1098780010530EE0019B002B02D148F2115308E06F
:10988800079B5B685B68019A029903989847069062
:10989800069B184609B05DF804FB00B589B0039033
:1098A80002910192039B07930798FFF771FF0690B7
:1098B800069B0593059B002B01D0059B18E0029B96
:1098C800002B02D148F2135312E0019B1A68079B40
:1098D8005B68DB689A4202D248F2145308E0079B9F
:1098E8005B689B68019A0299039898470690069BC3
:1098F800184609B05DF804FB00B585B0134A144B4F
:10990800D31ADB080293134B01221A700023039326
:1099180010E0039BDB000E4A13440193019B1B6874
:1099280098470090009B002B01D0009B0AE0039B06
:1099380001330393039A029B9A42EAD3054B02220E
:109948001A700023184605B05DF804FBC4A804008B
:10995800BCA8040060380020044B1B78DBB2022B43
:109968000CBF01230023DBB2184670476038002083
:10997800084B1B78DBB2022B04D0064B1B78DBB2FA
:10998800012B01D1012300E0002303F00103DBB226
:1099980018467047603800206B461846704700002C
:1099A80008B5FFF7F9FF0246034B9A4201D201239B
:1099B80000E00023184608BD00E0032000B587B08A
:1099C8000390029113468DF80730039B002B02D1B8
:1099D80048F2135330E0029B002B02D148F2145393
:1099E8002AE0174B1B68174A934202D048F20253E9
:1099F80022E0154B18689DF80730029A039901F088
:109A080085FD0590059B48F27152934213D10022BF
:109A18000021002000F0A8F80590059B002B01D03C
:109A2800059B09E0084B18689DF80730029A0399CE
:109A380001F06CFD0590059B184607B05DF804FB26
:109A4800683800206572E54B6438002000B585B0A1
:109A580001900091002200990198FFF7AFFF039051
:109A6800039B184605B05DF804FB000080B584B080
:109A780000AF786039600023FB60FFF791FF034671
:109A8800002B0DD02F4A304BD31ADB081B0443F0B0
:109A980001032E49184602F0EBFB48F219534CE03B
:109AA800FFF766FF034683F00103DBB2002B02D009
:109AB8004FF4054341E0264B1B68002B06D0254B8D
:109AC8001B68254A934201D1002336E07B68002BAE
:109AD80002D048F2175330E03B68002B02D048F21E
:109AE80017532AE01A4B1D4A1A601D4B3B603B680E
:109AF800002B10D1ADF5BF53083B9D466B4607338D
:109B0800DB08DB00FB60FB68002B02D148F2155331
:109B180013E0FB683B600E4B1B683968184601F080
:109B2800BFFCB860BB68002B06D10A4B0A4A1A6012
:109B3800074B1B680B4A1A60BB6818461037BD46AE
:109B480080BD00BFF4A80400C4A804007CB10400D0
:109B580064380020683800206572E54B6C380020B6
:109B6800543900206169614D80B586B000AFF86056
:109B7800B9607A6000237B61FFF712FF0346002B70
:109B88000DD0244A244BD31ADB081B0443F00103ED
:109B98002249184602F06CFB48F2195335E07B68FD
:109BA800002B05D0BB68002B02D148F210532CE0E3
:109BB8001B4B1B681B4A934202D048F2025324E015
:109BC800FB68002B02D048F217531EE0164BFB60CF
:109BD800FB68002B10D1ADF5BF53083B9D466B4683
:109BE8000733DB08DB007B617B69002B02D148F27D
:109BF80015530AE07B69FB600C4B18687B68BA68F0
:109C0800F96801F0BBFC38613B6918461837BD4656
:109C180080BD00BFF4A80400C4A804007CB10400FF
:109C2800683800206572E54B5439002064380020FC
:109C380082B00190019B03F06043B3F1005F0CBF59
:109C480001230023DBB2184602B0704700B585B087
:109C58000190019B002B03D10A49852012F0AAFB31
:109C68000121019805F0CDFB0390BFF35F8F039BA3
:109C7800002B0CBF01230023DBB2184605B05DF8AA
:109C880004FB00BF98B1040000B583B00190019BAC
:109C9800002B03D10A49922012F08CFB019B1B6810
:109CA800012B03D00649932012F084FBBFF35F8F8A
:109CB800019B00221A6000BF03B05DF804FB00BFDF
:109CC80098B1040008B50348FFF7C0FF03461846DB
:109CD80008BD00BF3451002008B50248FFF7D4FF83
:109CE80000BF08BD3451002084B00190019B354A63
:109CF80093425BD0334A934220D8334A934245D0AB
:109D0800314A93420FD8B3F5700F3BD0B3F5700FBB
:109D180002D8002B33D04DE02C4A93423AD02C4A3B
:109D280093423BD046E02B4A934203D82A4A9342B7
:109D380034D22FE0294A93422CD03BE0284A934260
:109D48000CD8284A934229D2274A93421ED0264A41
:109D5800934227D8254A934218D02BE0244A9342AD
:109D68001CD0234A934203D8224A93421ED021E0B2
:109D7800214A934212D0214A93420FD01AE000237D
:109D880003931BE048F20153039317E048F2115381
:109D9800039313E048F2105303930FE048F2035380
:109DA80003930BE048F21453039307E048F213536C
:109DB800039303E048F21653039300BF039B18462E
:109DC80004B070470900F0000300F0000100F00043
:109DD8000200F0000600F0000500F0000800F000A6
:109DE8000F00F0000E00F0000C00F0000A00F00078
:109DF8001200F0001100F0001500F000FF00F00064
:109E080086B00390029113468DF80730002305931E
:109E1800039B5B681B78082B34D801A252F823F007
:109E2800559E0200559E02008D9E02005D9E020016
:109E38004D9E02004D9E0200659E0200659E020036
:109E4800799E0200029B00221A6022E0029B0122F6
:109E58001A601EE0029B03221A601AE0029B02228B
:109E68001A609DF80730022B10D048F2175311E002
:109E7800029B05221A609DF80730022B08D048F291
:109E8800175307E048F20353059302E000BF00E0D0
:109E980000BF059B184606B0704700BF00B589B0E3
:109EA80001900B468DF80330019B0593FFF70AFFDD
:109EB80003468DF813309DF8133083F00103DBB2AD
:109EC800002B02D048F204534FE0059B0833184694
:109ED800FFF7AEFE034683F00103DBB2002B03D08D
:109EE80048F2125307933DE0059B5B685B88802B23
:109EF80003D048F21853079334E09DF8032002ABCF
:109F080019460598FFF77CFF0790079B002B28D17F
:109F18009DF80330002B02D1012306930EE09DF833
:109F28000330012B03D09DF80330022B02D100230C
:109F3800069303E048F21753079313E0059B9DF837
:109F4800032083F85420059B03F10800029A00239C
:109F580006991BF055FC03900398FFF7C5FE079080
:109F680000E000BFFFF7B8FE079B184609B05DF890
:109F780004FB00B587B00190019B0593FFF7A2FE93
:109F880003468DF813309DF8133083F00103DBB2DC
:109F9800002B02D048F204530CE0059B0833184606
:109FA8001BF08AFD03900398FFF79EFE0290FFF7CF
:109FB80093FE029B184607B05DF804FB00B589B014
:109FC80001900091019B0693FFF77CFE03468DF8F4
:109FD80017309DF8173083F00103DBB2002B02D055
:109FE80048F2045324E00098FFF722FE034683F06A
:109FF8000103DBB2002B03D048F21253079314E09D
:10A00800009B0293069B5B685B88DB089BB203930B
:10A01800069B03F1080002AA082300211BF02EFC6E
:10A0280004900498FFF760FE0790FFF755FE079B22
:10A03800184609B05DF804FB00B587B0019000919F
:10A04800019B0493FFF73EFE03468DF80F309DF801
:10A058000F3083F00103DBB2002B02D048F2045327
:10A068001AE00098FFF7E4FD034683F00103DBB232
:10A07800002B03D048F2125305930AE0049B0833DF
:10A08800009918461BF020FC02900298FFF72CFE5E
:10A098000590FFF721FE059B184607B05DF804FB05
:10A0A80000B587B00190009148F216530593019BC3
:10A0B8000493FFF707FE03468DF80F309DF80F3025
:10A0C80083F00103DBB2002B02D048F204532DE0E9
:10A0D8000098FFF7ADFD034683F00103DBB2002BC8
:10A0E80003D048F2125305931DE0049B08330099EE
:10A0F80018461BF001FC0290029B0E4A93420ED1B7
:10A10800049B1B680C4A93420DD1049B55331022C3
:10A118001946009819F05EFA0023059303E00298A7
:10A12800FFF7E2FD0590FFF7D7FD059B184607B03E
:10A138005DF804FB0200F0005345416300B58BB0A5
:10A14800039002910192009300230693039B0593C9
:10A15800FFF7B8FD03468DF813309DF8133083F0F0
:10A168000103DBB2002B02D048F204535BE00298F3
:10A17800FFF75EFD034683F00103DBB2002B08D135
:10A188000098FFF755FD034683F00103DBB2002B6F
:10A1980003D048F21253089342E0019B4FF6F07245
:10A1A800934208D94FF6F0730793019BA3F57F43B9
:10A1B800F03B019303E0019B07930023019301F017
:10A1C8005DFA059B93F85430022B0BD1059B03F1E4
:10A1D8000800029A069BD118009B079A1BF0A8FB5F
:10A1E80009900CE0059B03F10800029A069BD11820
:10A1F800009A069B1344079A1BF09AFB099001F0FA
:10A2080055FA069A079B134406930998FFF76CFDC5
:10A218000890019B002B02D0089B002BBDD000BFEB
:10A22800FFF75AFD089B18460BB05DF804FB00B514
:10A238008DB0059004910392029300230A93059B25
:10A248000993FFF73FFD03468DF823309DF823302F
:10A2580083F00103DBB2002B02D048F204539DE0E7
:10A268000E9B1B68039A9A4203D948F214530B9326
:10A2780091E0039B03F00F03002B08D0099B5B6858
:10A288001B78032B03D048F211530B9383E00498F7
:10A29800FFF7CEFC034683F00103DBB2002B08D1A5
:10A2A8000298FFF7C5FC034683F00103DBB2002BDD
:10A2B80027D048F212530B936DE04FF6F0730693D4
:10A2C800039BA3F57F43F03B039301F0D7F9099B68
:10A2D80003F10800049A0A9BD118029A0A9B1344B6
:10A2E800069A1BF025FB079001F0E0F90A9A069BF5
:10A2F80013440A930798FFF7F7FC0B900B9B002B6E
:10A3080046D1039B4FF6F0729342D6D80E9B1A683B
:10A318000A9BD21A0E9B1A6001F0B0F9099B03F14F
:10A328000800049A0A9BD118029A0A9B13440E9AB1
:10A3380001920093039B0A4603991BF03FFB079089
:10A3480001F0B4F90798FFF7CFFC0B900B9B002B9B
:10A3580005D10E9B1A680A9B1A440E9B1A60099B2A
:10A368005B681B78002B04D0099B5B681B78032B68
:10A3780010D1099B03F10802099B55331946104671
:10A388001BF0BAFA07900798FFF7AEFC0B9002E0B3
:10A3980000BF00E000BFFFF79FFC0B9B18460DB005
:10A3A8005DF804FB00B585B00190019B002B03D13B
:10A3B8000A49852011F0FEFF0121019805F021F8D6
:10A3C8000390BFF35F8F039B002B0CBF0123002377
:10A3D800DBB2184605B05DF804FB00BF14B20400F8
:10A3E80000B583B00190019B002B03D10A4992204C
:10A3F80011F0E0FF019B1B68012B03D00649932055
:10A4080011F0D8FFBFF35F8F019B00221A6000BFD5
:10A4180003B05DF804FB00BF14B2040008B503489C
:10A42800FFF7C0FF0346184608BD00BF345100209F
:10A4380008B50248FFF7D4FF00BF08BD345100201B
:10A4480082B00190019B0E4A93420ED00C4A93426F
:10A4580002D8002B07D00EE00A4A934208D00A4AD5
:10A46800934202D007E0002307E048F2425304E099
:10A4780048F2025301E048F21653184602B07047FA
:10A488008408F000080CF0002023F00000B585B027
:10A498000190019B9B68039303981CF007F90290B5
:10A4A800029B184605B05DF804FB00B5ADB00390FB
:10A4B8000291039B5B682B93039B1B7A002B01D0B3
:10A4C80000234DE02B98FFF7E1FF2A9004238DF835
:10A4D8001430039B03F10C012B9B9B791A4605ABA7
:10A4E8000133184619F076F8FFF798FF03468DF800
:10A4F800A7309DF8A73083F00103DBB2002B02D010
:10A5080048F204532CE001F0B9F82B9B9B790133F6
:10A518001846039B0C3305A9029A01920093022363
:10A5280002462A981BF0A2FC289001F0BFF8FFF71A
:10A538007FFF2898FFF784FF2790279B002B03D1E4
:10A54800039B01221A720AE0039B03F10C002B9B68
:10A558009B791A4605AB0133194619F03BF8279B3E
:10A5680018462DB05DF804FB00B591B00790069130
:10A578000592079B0F93069B0E93059B0D930E9BCD
:10A588005B681846FFF782FF0C90FFF747FF03460A
:10A598008DF82F309DF82F3083F00103DBB2002BAC
:10A5A80002D048F204531EE001F068F80E9B03F154
:10A5B80008000D9B0C330F9A002102910192009321
:10A5C80003460C9A0A4907981BF098FD0A9001F077
:10A5D8006DF8FFF72DFF0D9B01221A720A98FFF7FD
:10A5E8002FFF0990099B184611B05DF804FB00BFC6
:10A5F800E5B6020000B589B001900091019B079370
:10A60800079B5B6806930698FFF740FF0590FFF7E6
:10A6180005FF03468DF813309DF8133083F00103CE
:10A62800DBB2002B02D048F2045310E0069B5B79A2
:10A638001A46079B0833009905981AF057FC0390AF
:10A64800FFF7F6FE0398FFF7FBFE0290029B184601
:10A6580009B05DF804FB00B589B001900091019B39
:10A668000793079B5B680693069B5B790393079B9D
:10A67800083303AA009918461AF0A4FC0590069B13
:10A688005B791A46039B9A4202D048F2165304E0BB
:10A698000598FFF7D5FE0490049B184609B05DF8AD
:10A6A80004FB00B585B001900091019B0393039BC7
:10A6B8005B680293039B03F10C00029B9B791A468B
:10A6C800009918F087FF039B00221A72002318468E
:10A6D80005B05DF804FB00B5ABB001900091019B9B
:10A6E8002993299B5B682893299B1B7A83F0010394
:10A6F800DBB2002B0AD0299B03F10C01289B9B7924
:10A708001A46009818F066FF002339E0FFF786FE26
:10A7180003468DF89F309DF89F3083F00103DBB22C
:10A72800002B02D048F204532AE0289B9B7901337E
:10A738000293299B03F10C0002AB03AA04211BF02E
:10A748005BFC2690FFF774FE289B9B7901331A4621
:10A75800029B9A4203D19DF80C30042B02D048F298
:10A7680016530DE0289B9B791A4603AB0133194613
:10A77800009818F02FFF2698FFF762FE2590259B7A
:10A7880018462BB05DF804FB10B590B00790069101
:10A798000592079B0F93069B0E93059B0D93202311
:10A7A800099320230893FFF739FE03468DF83330C9
:10A7B8009DF8333083F00103DBB2002B02D048F25E
:10A7C80004531CE000F05AFF0D9B03F108000E9B98
:10A7D80003F108020F9B08AC09A90293094B0193E6
:10A7E800079B009323461BF081FE0B9000F05EFF51
:10A7F800FFF71EFE0B98FFF723FE0A900A9B1846E8
:10A8080010B010BDE5B6020000B585B0019000910A
:10A81800019B0393039B083320220099184618F0E4
:10A82800D9FE0023184605B05DF804FB00B585B0D5
:10A8380001900091019B0393039B08332022194642
:10A84800009818F0C7FE0023184605B05DF804FB11
:10A8580010B590B0079006910592079B0F93069B41
:10A868000E93059B0D932023099340230893FFF72C
:10A87800D5FD03468DF833309DF8333083F001035E
:10A88800DBB2002B02D048F204531CE000F0F6FEC5
:10A898000E9B03F108000D9B03F108020F9B09AC06
:10A8A80008A90293094B0193079B009323461BF0C9
:10A8B800AFFE0B9000F0FAFEFFF7BAFD0B98FFF71A
:10A8C800BFFD0A900A9B184610B010BDE5B60200FD
:10A8D80080B596B004AF7860396000237B647B68EC
:10A8E8003B6440233B612023FB60FFF797FD034651
:10A8F80087F83F3097F83F3083F00103DBB2002B35
:10A9080002D048F204532AE0ADF50E7D04AB0733BC
:10A91800DB08DB007B647B6C002B02D148F215530B
:10A928001DE000F0ABFE3B6C03F1080207F11001DB
:10A938007B6C029307F10C03019307F11403009356
:10A948000B46202138681BF02DFEB86300F0AEFEE0
:10A95800FFF76EFDB86BFFF773FD78637B6B1846E6
:10A968004837BD4680BD00B585B001900091019B78
:10A978000393039B083320221946009818F02AFEF7
:10A988000023184605B05DF804FB00B585B00190BA
:10A998000091019B0393039B0833202200991846DA
:10A9A80018F018FE0023184605B05DF804FB00B542
:10A9B80085B001900091019B0393039B08332022EB
:10A9C8001946009818F006FE0023184605B05DF8F1
:10A9D80004FB000000B585B00190019B002B03D15A
:10A9E8000A49852011F0E6FC0121019804F009FDCF
:10A9F8000390BFF35F8F039B002B0CBF0123002341
:10AA0800DBB2184605B05DF804FB00BF78B204005D
:10AA180000B583B00190019B002B03D10A49922015
:10AA280011F0C8FC019B1B68012B03D00649932039
:10AA380011F0C0FCBFF35F8F019B00221A6000BFBA
:10AA480003B05DF804FB00BF78B2040008B5034802
:10AA5800FFF7C0FF0346184608BD00BF3451002069
:10AA680008B50248FFF7D4FF00BF08BD34510020E5
:10AA780000B5A1B00590049103920293059B1E9323
:10AA8800049B1D93039B1C931D9B5B681B931E9B40
:10AA980019461C98FFF709FD1A901A9B002B01D044
:10AAA8001A9B4BE01B9B5B791793179B03F00303DF
:10AAB800002B07D0179B033323F00303179306AB30
:10AAC8001F9301E0029B1F93FFF7C0FF03468DF819
:10AAD80067309DF8673083F00103DBB2002B02D0AA
:10AAE80048F204532AE000F0C9FD1C9B03F10C0056
:10AAF8001D9B03F108011E9B17AA009313461F9A7A
:10AB08001BF086FB189000F0D1FDFFF7A9FF1F9AF4
:10AB1800029B9A420DD01B9B5B790333DB4303F006
:10AB2800030306AAD1181B9B5B791A46029818F0F2
:10AB380051FD1898FFF784FC1A901A9B184621B00B
:10AB48005DF804FB00B593B0079006910592049355
:10AB5800079B1193069B1093059B0F93109B5B68B3
:10AB68000E930E9B5B79089320230D9320230C935F
:10AB7800FFF76CFF03468DF82F309DF82F3083F0D8
:10AB88000103DBB2002B02D048F204531BE000F0B3
:10AB980075FD109B03F108000F9B0833119A08A953
:10ABA80002920D9A019200930C9B024604981BF0A6
:10ABB8009BFB0A9000F07AFDFFF752FF0A98FFF717
:10ABC8003FFC0990099B184613B05DF804FB000090
:10ABD80000B585B00190019B002B03D10A4985205F
:10ABE80011F0E8FB0121019804F00BFC0390BFF37E
:10ABF8005F8F039B002B0CBF01230023DBB2184699
:10AC080005B05DF804FB00BFD0B2040000B583B006
:10AC18000190019B002B03D10A49922011F0CAFB35
:10AC2800019B1B68012B03D00649932011F0C2FB3E
:10AC3800BFF35F8F019B00221A6000BF03B05DF86D
:10AC480004FB00BFD0B2040008B50348FFF7C0FFFB
:10AC58000346184608BD00BF3451002008B5024815
:10AC6800FFF7D4FF00BF08BD3451002082B0019027
:10AC7800019B03F06043B3F1005F0CBF0123002385
:10AC8800DBB2184602B0704784B00190019B1A4AA3
:10AC9800934219D0184A934205D8002B0DD0174A71
:10ACA80093420DD020E0164A934215D0154A93429C
:10ACB80016D0154A93420BD016E00023039317E0F1
:10ACC80048F20153039313E048F2035303930FE050
:10ACD80048F2025303930BE048F21653039307E03C
:10ACE80048F20353039303E048F21653039300BF5B
:10ACF800039B184604B070470102F0000002F00000
:10AD08000C02F0000F02F0000202F00000B587B05C
:10AD1800019002230593019B083304930599049835
:10AD280019F0EAF803900398FFF7AEFF0290029B30
:10AD3800184607B05DF804FB00B58DB0039002918A
:10AD48000192019B0B93029B0A93039B083309937F
:10AD58000298FFF78BFF034683F00103DBB2002B59
:10AD680002D048F2125334E0FFF76EFF03468DF825
:10AD780023309DF8233083F00103DBB2002B02D08F
:10AD880048F2045325E000F079FC0B9B4FF6FF7264
:10AD9800934228BF13460793079A0A99099819F00E
:10ADA8000FF906900B9A079BD31A0B930A9A079BE5
:10ADB80013440A93069B002B02D10B9B002BE4D172
:10ADC80000F074FCFFF74AFF0698FFF75DFF059057
:10ADD800059B18460DB05DF804FB00B58BB00390D9
:10ADE80002910192029B0993039B08330893FFF792
:10ADF8002BFF03468DF81F309DF81F3083F00103A9
:10AE0800DBB2002B02D048F2045315E000F036FC08
:10AE18000999089819F006F9069000F047FCFFF721
:10AE28001DFF0698FFF730FF0590059B002B02D108
:10AE3800019B20221A60059B18460BB05DF804FBA5
:10AE480082B00190019B03F06043B3F1005F0CBF37
:10AE580001230023DBB2184602B0704700B585B065
:10AE68000190019B002B03D10A49852011F0A2FA19
:10AE78000121019804F0C5FA0390BFF35F8F039B8B
:10AE8800002B0CBF01230023DBB2184605B05DF888
:10AE980004FB00BF40B3040000B583B00190019BE0
:10AEA800002B03D10A49922011F084FA019B1B68F8
:10AEB800012B03D00649932011F07CFABFF35F8F72
:10AEC800019B00221A6000BF03B05DF804FB00BFBD
:10AED80040B3040008B50348FFF7C0FF034618460F
:10AEE80008BD00BF3451002008B50248FFF7D4FF61
:10AEF80000BF08BD3451002084B00190019B234A53
:10AF0800934236D0214A93420FD8214A93421CD00B
:10AF18001F4A934202D8002B14D02EE01D4A9342B8
:10AF280017D01D4A934218D027E01C4A934214D0E8
:10AF38001A4A934215D31A4A93421AD0194A93428D
:10AF480013D01AE0002303931BE048F20153039344
:10AF580017E048F20253039313E048F210530393A7
:10AF68000FE048F2135303930BE048F2175303938F
:10AF780007E048F21153039303E048F21653039392
:10AF880000BF039B184604B0704700BF0403F000DD
:10AF98000003F0000203F0000303F0000603F000D2
:10AFA8000703F0000C03F00000B58BB0039002918A
:10AFB8000192039B0893089B5B681B7D002B02D0C2
:10AFC800012B03D005E00223099310E00423099321
:10AFD8000DE0214A214BD31ADB081B0443F001037F
:10AFE8001F49184601F044F948F203532FE002982C
:10AFF800FFF726FF034683F00103DBB2002B02D0E4
:10B0080048F2125323E0FFF765FF03468DF81F301F
:10B018009DF81F3083F00103DBB2002B02D048F209
:10B02800045314E000F02AFB089B03F10800019B7D
:10B038009BB2029A09991AF0DFF9069000F036FBE4
:10B04800FFF752FF0698FFF757FF0590059B184634
:10B058000BB05DF804FB00BFF4A80400C4A804000A
:10B0680098B3040000B58DB0039002910192019B42
:10B078000B93029B0A93039B09930298FFF7E0FE48
:10B08800034683F00103DBB2002B02D048F21253CF
:10B0980036E0FFF71FFF03468DF823309DF8233075
:10B0A80083F00103DBB2002B02D048F2045327E0FF
:10B0B80000F0E4FA0B9B4FF6FF72934228BF134649
:10B0C8000793099B0833079A0A9918461AF014FA45
:10B0D80006900B9A079BD31A0B930A9A079B134463
:10B0E8000A93069B002B02D10B9B002BE2D100F0A8
:10B0F800DDFAFFF7F9FE0698FFF7FEFE0590059BBF
:10B1080018460DB05DF804FB00B58BB003900291B2
:10B118000192029B0993039B0893019B00221A60EA
:10B12800FFF7D8FE03468DF81F309DF81F3083F0D7
:10B138000103DBB2002B02D048F204531BE000F0FD
:10B148009DFA089B0833099918461AF0F5F90690F4
:10B1580000F0ACFAFFF7C8FE0698FFF7CDFE0590A1
:10B16800069B002B01D0059B05E0089B5B68DA680D
:10B17800019B1A60059B18460BB05DF804FB0000A4
:10B1880000B583B00190019B002B03D106497220C2
:10B1980011F010F9019B00221A60BFF35F8F00BF06
:10B1A80003B05DF804FB00BFE8B3040008B502482B
:10B1B800FFF7E6FF00BF08BD3451002084B00190BE
:10B1C80003230393019B002B02D10023039302E086
:10B1D8000323039300BF039B184604B07047000085
:10B1E80000B585B0FFF7E2FF134B0122C3F8002535
:10B1F8001BF0AEFA0390104B0022C3F80025039809
:10B20800FFF7DCFF0290029B0193019B002B01D00A
:10B21800019B0CE000210020FEF728FC0290029B15
:10B228000093009B002B01D0009B00E0029B184676
:10B2380005B05DF804FB00BF00A0025000B583B064
:10B2480000210020FEF712FC0190019B0093009B57
:10B25800002B01D0009B0AE0074B0122C3F8002510
:10B268001BF0A2FA044B0022C3F80025002318465D
:10B2780003B05DF804FB00BF00A0025000B585B024
:10B288000190019B002B03D10A49852011F092F807
:10B298000121019804F0B5F80390BFF35F8F039B79
:10B2A800002B0CBF01230023DBB2184605B05DF864
:10B2B80004FB00BF40B4040000B583B00190019BBB
:10B2C800002B03D10A49922011F074F8019B1B68E6
:10B2D800012B03D00649932011F06CF8BFF35F8F60
:10B2E800019B00221A6000BF03B05DF804FB00BF99
:10B2F80040B4040008B50348FFF7C0FF03461846EA
:10B3080008BD00BF3451002008B50248FFF7D4FF3C
:10B3180000BF08BD3451002084B00190019B4A4A07
:10B3280093422CD8494A934261D2494A934212D84F
:10B33800484A93426BD2484A934260D0464A934265
:10B3480002D8002B4CD076E0444A934253D0444A6A
:10B35800934258D06FE0434A934264D0414A9342A3
:10B3680006D8414A934256D0404A93425FD062E0A1
:10B378003F4A93423FD03F4A93423CD05BE03E4A2B
:10B3880093424CD03C4A934213D83C4A93423AD019
:10B398003A4A934206D83A4A934234D0394A9342B9
:10B3A80039D048E0384A934231D0384A93421AD0CB
:10B3B80041E0374A93422ED0354A934206D8354A5F
:10B3C80093422CD0344A934219D034E0334A934202
:10B3D8001DD0A3F57003A3F63443012B2BD80AE044
:10B3E800002303932BE048F21753039327E048F216
:10B3F8007053039323E048F2035303931FE048F28A
:10B40800135303931BE048F21053039317E048F2D9
:10B418001153039313E048F2145303930FE048F2D7
:10B42800015303930BE048F20253039307E048F2F9
:10B438007153039303E048F21653039300BF039B31
:10B44800184604B0704700BF120CF000100CF00052
:10B45800050CF000040CF000000CF000010CF000EA
:10B46800030CF000080CF000060CF000070CF000CC
:10B478000D0CF0000F0CF000250CF000220CF00071
:10B48800200CF000210CF000230CF000240CF0003C
:10B49800310CF000270CF000300CF000320CF000FA
:10B4A80000B589B001900091009B0793019B06931A
:10B4B800069B1B68144A934201D1002320E0FFF742
:10B4C80019FF03468DF817309DF8173083F00103F4
:10B4D800DBB2002B02D048F2045311E000F0CEF8A2
:10B4E800069B04330799184619F01CF90490049830
:10B4F800FFF712FF039000F0D9F8FFF705FF039B51
:10B50800184609B05DF804FB6169614D00B589B062
:10B518000390029101928DF80330039B0433079343
:10B528009DF80330002B0ED0FFF7E4FE03468DF89C
:10B538001B309DF81B3083F00103DBB2002B02D0D7
:10B5480048F2045316E000F099F8019B9BB2029A66
:10B558001946079819F04AF9059000F0A7F80598D8
:10B56800FFF7DAFE04909DF80330002B01D0FFF7B7
:10B57800CBFE049B184609B05DF804FB00B58BB000
:10B58800039002910192009300230993029B089370
:10B59800039B04330793009B0C2B02D948F21153E9
:10B5A8003AE0009B03F00303002B02D048F2165345
:10B5B80032E0FFF79FFE03468DF81B309DF81B30E5
:10B5C80083F00103DBB2002B02D048F2045323E0DE
:10B5D80000F054F8009B002B0ED0009B9BB21A463B
:10B5E8000199079819F0B2FA05900598FFF794FEAB
:10B5F8000990099B002B09D10899079819F064FA5A
:10B6080005900598FFF788FE099000E000BF00F05C
:10B618004DF8FFF779FE099B18460BB05DF804FB5F
:10B6280082B003468DF807309DF8073003F01F02FB
:10B6380005499DF907305B09012000FA02F241F83B
:10B64800232000BF02B0704700E100E082B003464B
:10B658008DF807309DF8073003F01F0206499DF961
:10B6680007305B09012000FA02F2203341F8232059
:10B6780000BF02B0704700BF00E100E008B5094B09
:10B688001B680133074A1360064B1B68012B06D160
:10B69800054B0122C3F800252A20FFF7C1FF00BF90
:10B6A80008BD00BF3851002000A0025008B5094B62
:10B6B8001B68013B074A1360064B1B68002B06D129
:10B6C800054B0022C3F800252A20FFF7BFFF00BF63
:10B6D80008BD00BF3851002000A0025000B587B057
:10B6E80003900B460192ADF80A30BDF80A301946AE
:10B6F8000198FEF7ABF90590059B002B01D10023BB
:10B7080007E0059B48F20252934201D1034B00E047
:10B71800034B184607B05DF804FB00BF080CF000A7
:10B728000F0CF00000B585B00190019B002B0AD0EA
:10B73800074B43F001030393019B9B010293039B77
:10B748000298984700E000BF05B05DF804FB00BF11
:10B75800B0B4040000B583B00190019B002B0AD05F
:10B768004FF47A70FFF7DEFF019B013B0193019BC9
:10B77800002BF5D100E000BF03B05DF804FB08B56D
:10B7880006F03EF800BF08BD00B589B003900291ED
:10B798000192019B002B33D00023079303230693C8
:10B7A800029A079B1344019A1946002005F0B4FF3A
:10B7B8000590079A059B13440793019A059BD31A92
:10B7C8000193059B002B13D10F4B1B7883F00103CA
:10B7D800DBB2002B13D10120FFF7BCFF069B013B16
:10B7E8000693069B002B03D1074B00221A7007E033
:10B7F800054B01221A70019B002BD1D100E000BF3C
:10B8080000BF09B05DF804FB3C51002000B585B0CD
:10B8180003900291054B00934023054A029903982F
:10B8280000F012F800BF05B05DF804FB91B7020004
:10B838004051002082B0019000BF02B0704782B032
:10B84800019000BF02B0704700B5A1B00590049107
:10B8580003920293049805F016F8039B1593029B34
:10B8680016930023179300238DF860300023199353
:10B87800229B1A9300231F930FA91F9B0822049849
:10B8880005F0DAF808231F93119B1293BDF8403096
:10B89800ADF84C30BDF84230ADF84E3000238DF88D
:10B8A80051309DF83C3003F00303DBB2012B26D165
:10B8B8000F9BC3F395231C939DF83C30C3F3C2033D
:10B8C800DBB28DF85030BDF83C30C3F38313DBB2E4
:10B8D8001B931B9B9A0009A91F9B049805F0ACF8C1
:10B8E8001B9B9B001F9A13441F9312AA09A915AB0F
:10B8F800009313461B9A1C9801F030F82FE09DF82E
:10B908003C3003F00303DBB2022B28D1BDF83E30F4
:10B91800C3F389139BB21E939DF83C30C3F3C20353
:10B92800DBB28DF850301E9B082B28BF08231D93CF
:10B9380007A91F9B1D9A049805F07EF81F9A1D9B66
:10B9480013441F931E9A1D9BD31A1E9315AB12AA5C
:10B9580007A81D9901F0A4F81E9B002BE3D10498B9
:10B9680004F0A0FF00BF21B05DF804FB00B583B070
:10B978000190019B1B781A460C4B9B5C002B05D051
:10B98800019B04331846FCF7C9FA0BE0019B1B78AE
:10B998001A46064B9B5C002B04D1019B0C331846BE
:10B9A800FBF760FC00BF03B05DF804FB74370020B0
:10B9B80000B587B00390029113468DF80730002335
:10B9C8000593039B1B781A46114B9B5C002B09D0EF
:10B9D800039B04339DF8072002991846FCF7CCFA1C
:10B9E80005900FE0039B1B781A46094B9B5C002BC4
:10B9F80008D1039B0C339DF8072002991846FBF7E2
:10BA0800A7FC0590059B184607B05DF804FB00BF2E
:10BA18007437002082B001900091034B01221A7004
:10BA280000BF02B0704700BFC051002030B58DB0D4
:10BA380003468DF807301A4B02AC1D460FCD0FC4D4
:10BA480095E80F0084E80F00062302934FF0FF33B8
:10BA580003934FF0FF3304934FF0FF3305934FF0F8
:10BA6800EB7308939DF80730002B01D00D4A00E0D6
:10BA7800002202AB19460C48FAF76CFD0B900B9BA1
:10BA88000A930A9B002B04D0084A43210A9801F024
:10BA9800C5F8074A9DF80730137000BF0DB030BDD8
:10BAA80020B504001DBA020074360020B8B40400A2
:10BAB800C151002000B583B000238DF807309DF8F0
:10BAC80007301846FFF7B2FF00BF03B05DF804FB6C
